{
  "_format": "hh-sol-artifact-1",
  "contractName": "DeliveryMarketplace",
  "sourceName": "contracts/core/DeliveryMarketplace.sol",
  "abi": [
    {
      "inputs": [
        {
          "internalType": "address",
          "name": "admin",
          "type": "address"
        },
        {
          "internalType": "contract OrderEscrow",
          "name": "_escrow",
          "type": "address"
        },
        {
          "internalType": "contract RewardToken",
          "name": "_rewardToken",
          "type": "address"
        },
        {
          "internalType": "contract Reputation",
          "name": "_reputation",
          "type": "address"
        },
        {
          "internalType": "contract GreenDeliveryNFT",
          "name": "_greenNFT",
          "type": "address"
        },
        {
          "internalType": "contract DriverProfileNFT",
          "name": "_driverProfile",
          "type": "address"
        },
        {
          "internalType": "address",
          "name": "_platformFeeRecipient",
          "type": "address"
        }
      ],
      "stateMutability": "nonpayable",
      "type": "constructor"
    },
    {
      "anonymous": false,
      "inputs": [
        {
          "indexed": false,
          "internalType": "address",
          "name": "account",
          "type": "address"
        }
      ],
      "name": "Paused",
      "type": "event"
    },
    {
      "anonymous": false,
      "inputs": [
        {
          "indexed": true,
          "internalType": "address",
          "name": "restaurant",
          "type": "address"
        }
      ],
      "name": "RestaurantRegistered",
      "type": "event"
    },
    {
      "anonymous": false,
      "inputs": [
        {
          "indexed": true,
          "internalType": "bytes32",
          "name": "role",
          "type": "bytes32"
        },
        {
          "indexed": true,
          "internalType": "bytes32",
          "name": "previousAdminRole",
          "type": "bytes32"
        },
        {
          "indexed": true,
          "internalType": "bytes32",
          "name": "newAdminRole",
          "type": "bytes32"
        }
      ],
      "name": "RoleAdminChanged",
      "type": "event"
    },
    {
      "anonymous": false,
      "inputs": [
        {
          "indexed": true,
          "internalType": "bytes32",
          "name": "role",
          "type": "bytes32"
        },
        {
          "indexed": true,
          "internalType": "address",
          "name": "account",
          "type": "address"
        },
        {
          "indexed": true,
          "internalType": "address",
          "name": "sender",
          "type": "address"
        }
      ],
      "name": "RoleGranted",
      "type": "event"
    },
    {
      "anonymous": false,
      "inputs": [
        {
          "indexed": true,
          "internalType": "bytes32",
          "name": "role",
          "type": "bytes32"
        },
        {
          "indexed": true,
          "internalType": "address",
          "name": "account",
          "type": "address"
        },
        {
          "indexed": true,
          "internalType": "address",
          "name": "sender",
          "type": "address"
        }
      ],
      "name": "RoleRevoked",
      "type": "event"
    },
    {
      "anonymous": false,
      "inputs": [
        {
          "indexed": false,
          "internalType": "address",
          "name": "account",
          "type": "address"
        }
      ],
      "name": "Unpaused",
      "type": "event"
    },
    {
      "anonymous": false,
      "inputs": [
        {
          "indexed": true,
          "internalType": "address",
          "name": "user",
          "type": "address"
        }
      ],
      "name": "UserRegistered",
      "type": "event"
    },
    {
      "inputs": [],
      "name": "DEFAULT_ADMIN_ROLE",
      "outputs": [
        {
          "internalType": "bytes32",
          "name": "",
          "type": "bytes32"
        }
      ],
      "stateMutability": "view",
      "type": "function"
    },
    {
      "inputs": [],
      "name": "OPERATOR_ROLE",
      "outputs": [
        {
          "internalType": "bytes32",
          "name": "",
          "type": "bytes32"
        }
      ],
      "stateMutability": "view",
      "type": "function"
    },
    {
      "inputs": [
        {
          "internalType": "address",
          "name": "driver",
          "type": "address"
        },
        {
          "internalType": "string",
          "name": "uri",
          "type": "string"
        }
      ],
      "name": "addDriver",
      "outputs": [],
      "stateMutability": "nonpayable",
      "type": "function"
    },
    {
      "inputs": [
        {
          "internalType": "address",
          "name": "rest",
          "type": "address"
        }
      ],
      "name": "addRestaurant",
      "outputs": [],
      "stateMutability": "nonpayable",
      "type": "function"
    },
    {
      "inputs": [
        {
          "internalType": "uint256",
          "name": "orderId",
          "type": "uint256"
        },
        {
          "internalType": "uint256",
          "name": "restaurantShare",
          "type": "uint256"
        },
        {
          "internalType": "uint256",
          "name": "driverShare",
          "type": "uint256"
        },
        {
          "internalType": "uint8",
          "name": "driverRating",
          "type": "uint8"
        },
        {
          "internalType": "bool",
          "name": "greenDelivery",
          "type": "bool"
        },
        {
          "internalType": "string",
          "name": "greenUri",
          "type": "string"
        }
      ],
      "name": "completeOrder",
      "outputs": [],
      "stateMutability": "nonpayable",
      "type": "function"
    },
    {
      "inputs": [
        {
          "internalType": "address",
          "name": "restaurant",
          "type": "address"
        },
        {
          "internalType": "address",
          "name": "driver",
          "type": "address"
        },
        {
          "internalType": "uint256",
          "name": "amount",
          "type": "uint256"
        }
      ],
      "name": "createOrder",
      "outputs": [
        {
          "internalType": "uint256",
          "name": "orderId",
          "type": "uint256"
        }
      ],
      "stateMutability": "nonpayable",
      "type": "function"
    },
    {
      "inputs": [],
      "name": "driverProfile",
      "outputs": [
        {
          "internalType": "contract DriverProfileNFT",
          "name": "",
          "type": "address"
        }
      ],
      "stateMutability": "view",
      "type": "function"
    },
    {
      "inputs": [],
      "name": "escrow",
      "outputs": [
        {
          "internalType": "contract OrderEscrow",
          "name": "",
          "type": "address"
        }
      ],
      "stateMutability": "view",
      "type": "function"
    },
    {
      "inputs": [
        {
          "internalType": "bytes32",
          "name": "role",
          "type": "bytes32"
        }
      ],
      "name": "getRoleAdmin",
      "outputs": [
        {
          "internalType": "bytes32",
          "name": "",
          "type": "bytes32"
        }
      ],
      "stateMutability": "view",
      "type": "function"
    },
    {
      "inputs": [
        {
          "internalType": "bytes32",
          "name": "role",
          "type": "bytes32"
        },
        {
          "internalType": "address",
          "name": "account",
          "type": "address"
        }
      ],
      "name": "grantRole",
      "outputs": [],
      "stateMutability": "nonpayable",
      "type": "function"
    },
    {
      "inputs": [],
      "name": "greenNFT",
      "outputs": [
        {
          "internalType": "contract GreenDeliveryNFT",
          "name": "",
          "type": "address"
        }
      ],
      "stateMutability": "view",
      "type": "function"
    },
    {
      "inputs": [
        {
          "internalType": "bytes32",
          "name": "role",
          "type": "bytes32"
        },
        {
          "internalType": "address",
          "name": "account",
          "type": "address"
        }
      ],
      "name": "hasRole",
      "outputs": [
        {
          "internalType": "bool",
          "name": "",
          "type": "bool"
        }
      ],
      "stateMutability": "view",
      "type": "function"
    },
    {
      "inputs": [
        {
          "internalType": "address",
          "name": "",
          "type": "address"
        }
      ],
      "name": "isDriver",
      "outputs": [
        {
          "internalType": "bool",
          "name": "",
          "type": "bool"
        }
      ],
      "stateMutability": "view",
      "type": "function"
    },
    {
      "inputs": [],
      "name": "pause",
      "outputs": [],
      "stateMutability": "nonpayable",
      "type": "function"
    },
    {
      "inputs": [],
      "name": "paused",
      "outputs": [
        {
          "internalType": "bool",
          "name": "",
          "type": "bool"
        }
      ],
      "stateMutability": "view",
      "type": "function"
    },
    {
      "inputs": [],
      "name": "platformFeeRecipient",
      "outputs": [
        {
          "internalType": "address",
          "name": "",
          "type": "address"
        }
      ],
      "stateMutability": "view",
      "type": "function"
    },
    {
      "inputs": [],
      "name": "registerRestaurant",
      "outputs": [],
      "stateMutability": "nonpayable",
      "type": "function"
    },
    {
      "inputs": [],
      "name": "registerUser",
      "outputs": [],
      "stateMutability": "nonpayable",
      "type": "function"
    },
    {
      "inputs": [
        {
          "internalType": "bytes32",
          "name": "role",
          "type": "bytes32"
        },
        {
          "internalType": "address",
          "name": "account",
          "type": "address"
        }
      ],
      "name": "renounceRole",
      "outputs": [],
      "stateMutability": "nonpayable",
      "type": "function"
    },
    {
      "inputs": [],
      "name": "reputation",
      "outputs": [
        {
          "internalType": "contract Reputation",
          "name": "",
          "type": "address"
        }
      ],
      "stateMutability": "view",
      "type": "function"
    },
    {
      "inputs": [
        {
          "internalType": "address",
          "name": "",
          "type": "address"
        }
      ],
      "name": "restaurants",
      "outputs": [
        {
          "internalType": "bool",
          "name": "isRegistered",
          "type": "bool"
        }
      ],
      "stateMutability": "view",
      "type": "function"
    },
    {
      "inputs": [
        {
          "internalType": "bytes32",
          "name": "role",
          "type": "bytes32"
        },
        {
          "internalType": "address",
          "name": "account",
          "type": "address"
        }
      ],
      "name": "revokeRole",
      "outputs": [],
      "stateMutability": "nonpayable",
      "type": "function"
    },
    {
      "inputs": [],
      "name": "rewardToken",
      "outputs": [
        {
          "internalType": "contract RewardToken",
          "name": "",
          "type": "address"
        }
      ],
      "stateMutability": "view",
      "type": "function"
    },
    {
      "inputs": [
        {
          "internalType": "bytes4",
          "name": "interfaceId",
          "type": "bytes4"
        }
      ],
      "name": "supportsInterface",
      "outputs": [
        {
          "internalType": "bool",
          "name": "",
          "type": "bool"
        }
      ],
      "stateMutability": "view",
      "type": "function"
    },
    {
      "inputs": [],
      "name": "unpause",
      "outputs": [],
      "stateMutability": "nonpayable",
      "type": "function"
    },
    {
      "inputs": [
        {
          "internalType": "address",
          "name": "",
          "type": "address"
        }
      ],
      "name": "users",
      "outputs": [
        {
          "internalType": "bool",
          "name": "isRegistered",
          "type": "bool"
        }
      ],
      "stateMutability": "view",
      "type": "function"
    }
  ],
  "bytecode": "0x60806040523480156200001157600080fd5b50604051620016b1380380620016b18339810160408190526200003491620001b0565b6001805460ff191690556200004b600088620000f6565b620000777f97667070c54ef182b0f5858b034beac1b6f3089aa2d3188bb1e8929f4fa9b92988620000f6565b600180546001600160a01b0397881661010002610100600160a81b0319909116179055600280549587166001600160a01b0319968716179055600380549487169486169490941790935560048054928616928516929092179091556005805491851691841691909117905560068054919093169116179055506200025b565b6000828152602081815260408083206001600160a01b038516845290915290205460ff1662000193576000828152602081815260408083206001600160a01b03851684529091529020805460ff19166001179055620001523390565b6001600160a01b0316816001600160a01b0316837f2f8788117e7eff1d82e926ec794901d17c78024a50270940304540a733656f0d60405160405180910390a45b5050565b6001600160a01b0381168114620001ad57600080fd5b50565b600080600080600080600060e0888a031215620001cc57600080fd5b8751620001d98162000197565b6020890151909750620001ec8162000197565b6040890151909650620001ff8162000197565b6060890151909550620002128162000197565b6080890151909450620002258162000197565b60a0890151909350620002388162000197565b60c08901519092506200024b8162000197565b8091505092959891949750929550565b611446806200026b6000396000f3fe608060405234801561001057600080fd5b506004361061018e5760003560e01c806391d14854116100de578063d547741f11610097578063f5b541a611610071578063f5b541a614610383578063f7c618c114610398578063fa20fca7146103ab578063fffed7b2146103b357600080fd5b8063d547741f14610345578063e2fdcc1714610358578063eb13554f1461037057600080fd5b806391d14854146102be5780639a5d6a4a146102d1578063a217fddf146102e4578063a87430ba146102ec578063ab9420361461030f578063c52164c61461033257600080fd5b806336568abe1161014b5780635c975abb116101255780635c975abb146102855780638456cb591461029057806386fcce5b146102985780638ce4dd29146102ab57600080fd5b806336568abe146102625780633f4ba83a146102755780634d3820eb1461027d57600080fd5b806301ffc9a714610193578063236cd7dc146101bb578063248a9ca3146101de5780632d842c011461020f5780632f2ff15d1461023a578063328a8cc41461024f575b600080fd5b6101a66101a1366004610f7b565b6103c6565b60405190151581526020015b60405180910390f35b6101a66101c9366004610fba565b60086020526000908152604090205460ff1681565b6102016101ec366004610fd7565b60009081526020819052604090206001015490565b6040519081526020016101b2565b600554610222906001600160a01b031681565b6040516001600160a01b0390911681526020016101b2565b61024d610248366004610ff0565b6103fd565b005b61024d61025d366004610fba565b610427565b61024d610270366004610ff0565b610464565b61024d6104e7565b61024d61050a565b60015460ff166101a6565b61024d61055f565b61024d6102a6366004611069565b61057f565b61024d6102b93660046110be565b610702565b6101a66102cc366004610ff0565b61096e565b6102016102df36600461114f565b610997565b610201600081565b6101a66102fa366004610fba565b60096020526000908152604090205460ff1681565b6101a661031d366004610fba565b60076020526000908152604090205460ff1681565b600354610222906001600160a01b031681565b61024d610353366004610ff0565b610ae2565b6001546102229061010090046001600160a01b031681565b600654610222906001600160a01b031681565b6102016000805160206113f183398151915281565b600254610222906001600160a01b031681565b61024d610b07565b600454610222906001600160a01b031681565b60006001600160e01b03198216637965db0b60e01b14806103f757506301ffc9a760e01b6001600160e01b03198316145b92915050565b60008281526020819052604090206001015461041881610b5c565b6104228383610b66565b505050565b6000805160206113f183398151915261043f81610b5c565b506001600160a01b03166000908152600860205260409020805460ff19166001179055565b6001600160a01b03811633146104d95760405162461bcd60e51b815260206004820152602f60248201527f416363657373436f6e74726f6c3a2063616e206f6e6c792072656e6f756e636560448201526e103937b632b9903337b91039b2b63360891b60648201526084015b60405180910390fd5b6104e38282610bea565b5050565b6000805160206113f18339815191526104ff81610b5c565b610507610c4f565b50565b60408051602080820183526001825233600081815260099092528382209251835460ff191690151517909255915190917f54db7a5cb4735e1aac1f53db512d3390390bb6637bd30ad4bf9fc98667d9b9b991a2565b6000805160206113f183398151915261057781610b5c565b610507610ca1565b6000805160206113f183398151915261059781610b5c565b6001600160a01b03841660009081526007602052604090205460ff16156105f15760405162461bcd60e51b815260206004820152600e60248201526d20b63932b0b23c90323934bb32b960911b60448201526064016104d0565b6001600160a01b0384811660008181526007602052604090819020805460ff191660011790556005549051631e11b41f60e01b8152600481019290925290911690631e11b41f90602401602060405180830381865afa158015610658573d6000803e3d6000fd5b505050506040513d601f19601f8201168201806040525081019061067c9190611190565b6000036106fc5760055460405163741059b560e01b81526001600160a01b039091169063741059b5906106b7908790879087906004016111a9565b6020604051808303816000875af11580156106d6573d6000803e3d6000fd5b505050506040513d601f19601f820116820180604052508101906106fa9190611190565b505b50505050565b6000805160206113f183398151915261071a81610b5c565b600154600654604051633425fa6960e21b8152600481018b9052602481018a9052604481018990526001600160a01b039182166064820152610100909204169063d097e9a490608401600060405180830381600087803b15801561077d57600080fd5b505af1158015610791573d6000803e3d6000fd5b505060015460405163d09ef24160e01b8152600481018c9052600093506101009091046001600160a01b0316915063d09ef2419060240160a060405180830381865afa1580156107e5573d6000803e3d6000fd5b505050506040513d601f19601f82011682018060405250810190610809919061121e565b60025460408281015190516340c10f1960e01b81526001600160a01b039182166004820152602481018b905292935016906340c10f1990604401600060405180830381600087803b15801561085d57600080fd5b505af1158015610871573d6000803e3d6000fd5b50506003546040848101519051631e79666360e21b81526001600160a01b03918216600482015260ff8b166024820152911692506379e5998c9150604401600060405180830381600087803b1580156108c957600080fd5b505af11580156108dd573d6000803e3d6000fd5b5050505084156109635760048054604080840151905163d0def52160e01b81526001600160a01b039092169263d0def5219261091e929189918991016111a9565b6020604051808303816000875af115801561093d573d6000803e3d6000fd5b505050506040513d601f19601f820116820180604052508101906109619190611190565b505b505050505050505050565b6000918252602082815260408084206001600160a01b0393909316845291905290205460ff1690565b60006109a1610cdc565b6001600160a01b03841660009081526008602052604090205460ff166109fa5760405162461bcd60e51b815260206004820152600e60248201526d139bdd081c995cdd185d5c985b9d60921b60448201526064016104d0565b6001600160a01b03831660009081526007602052604090205460ff16610a4f5760405162461bcd60e51b815260206004820152600a6024820152692737ba10323934bb32b960b11b60448201526064016104d0565b6001546040516329929e9960e11b81523360048201526001600160a01b038681166024830152858116604483015260648201859052610100909204909116906353253d32906084016020604051808303816000875af1158015610ab6573d6000803e3d6000fd5b505050506040513d601f19601f82011682018060405250810190610ada9190611190565b949350505050565b600082815260208190526040902060010154610afd81610b5c565b6104228383610bea565b60408051602080820183526001825233600081815260089092528382209251835460ff191690151517909255915190917ffea1a76699204050b14f6e288592cb649dc7b708b21343e2070b34cbf108dc4591a2565b6105078133610d24565b610b70828261096e565b6104e3576000828152602081815260408083206001600160a01b03851684529091529020805460ff19166001179055610ba63390565b6001600160a01b0316816001600160a01b0316837f2f8788117e7eff1d82e926ec794901d17c78024a50270940304540a733656f0d60405160405180910390a45050565b610bf4828261096e565b156104e3576000828152602081815260408083206001600160a01b0385168085529252808320805460ff1916905551339285917ff6391f5c32d9c69d2a47ea670b442974b53935d1edc7fd64eb21e047a839171b9190a45050565b610c57610d7d565b6001805460ff191690557f5db9ee0a495bf2e6ff9c91a7834c1ba4fdd244a5e8aa4e537bd38aeae4b073aa335b6040516001600160a01b03909116815260200160405180910390a1565b610ca9610cdc565b6001805460ff1916811790557f62e78cea01bee320cd4e420270b5ea74000d11b0c9f74754ebdbfc544b05a25833610c84565b60015460ff1615610d225760405162461bcd60e51b815260206004820152601060248201526f14185d5cd8589b194e881c185d5cd95960821b60448201526064016104d0565b565b610d2e828261096e565b6104e357610d3b81610dc6565b610d46836020610dd8565b604051602001610d579291906112db565b60408051601f198184030181529082905262461bcd60e51b82526104d091600401611350565b60015460ff16610d225760405162461bcd60e51b815260206004820152601460248201527314185d5cd8589b194e881b9bdd081c185d5cd95960621b60448201526064016104d0565b60606103f76001600160a01b03831660145b60606000610de7836002611399565b610df29060026113b0565b67ffffffffffffffff811115610e0a57610e0a6111e9565b6040519080825280601f01601f191660200182016040528015610e34576020820181803683370190505b509050600360fc1b81600081518110610e4f57610e4f6113c3565b60200101906001600160f81b031916908160001a905350600f60fb1b81600181518110610e7e57610e7e6113c3565b60200101906001600160f81b031916908160001a9053506000610ea2846002611399565b610ead9060016113b0565b90505b6001811115610f25576f181899199a1a9b1b9c1cb0b131b232b360811b85600f1660108110610ee157610ee16113c3565b1a60f81b828281518110610ef757610ef76113c3565b60200101906001600160f81b031916908160001a90535060049490941c93610f1e816113d9565b9050610eb0565b508315610f745760405162461bcd60e51b815260206004820181905260248201527f537472696e67733a20686578206c656e67746820696e73756666696369656e7460448201526064016104d0565b9392505050565b600060208284031215610f8d57600080fd5b81356001600160e01b031981168114610f7457600080fd5b6001600160a01b038116811461050757600080fd5b600060208284031215610fcc57600080fd5b8135610f7481610fa5565b600060208284031215610fe957600080fd5b5035919050565b6000806040838503121561100357600080fd5b82359150602083013561101581610fa5565b809150509250929050565b60008083601f84011261103257600080fd5b50813567ffffffffffffffff81111561104a57600080fd5b60208301915083602082850101111561106257600080fd5b9250929050565b60008060006040848603121561107e57600080fd5b833561108981610fa5565b9250602084013567ffffffffffffffff8111156110a557600080fd5b6110b186828701611020565b9497909650939450505050565b600080600080600080600060c0888a0312156110d957600080fd5b873596506020880135955060408801359450606088013560ff811681146110ff57600080fd5b93506080880135801515811461111457600080fd5b925060a088013567ffffffffffffffff81111561113057600080fd5b61113c8a828b01611020565b989b979a50959850939692959293505050565b60008060006060848603121561116457600080fd5b833561116f81610fa5565b9250602084013561117f81610fa5565b929592945050506040919091013590565b6000602082840312156111a257600080fd5b5051919050565b6001600160a01b03841681526040602082018190528101829052818360608301376000818301606090810191909152601f909201601f1916010192915050565b634e487b7160e01b600052604160045260246000fd5b805161120a81610fa5565b919050565b80516005811061120a57600080fd5b600060a0828403121561123057600080fd5b60405160a0810181811067ffffffffffffffff8211171561126157634e487b7160e01b600052604160045260246000fd5b604052825161126f81610fa5565b8152602083015161127f81610fa5565b6020820152611290604084016111ff565b6040820152606083015160608201526112ab6080840161120f565b60808201529392505050565b60005b838110156112d25781810151838201526020016112ba565b50506000910152565b7f416363657373436f6e74726f6c3a206163636f756e74200000000000000000008152600083516113138160178501602088016112b7565b7001034b99036b4b9b9b4b733903937b6329607d1b60179184019182015283516113448160288401602088016112b7565b01602801949350505050565b602081526000825180602084015261136f8160408501602087016112b7565b601f01601f19169190910160400192915050565b634e487b7160e01b600052601160045260246000fd5b80820281158282048414176103f7576103f7611383565b808201808211156103f7576103f7611383565b634e487b7160e01b600052603260045260246000fd5b6000816113e8576113e8611383565b50600019019056fe97667070c54ef182b0f5858b034beac1b6f3089aa2d3188bb1e8929f4fa9b929a26469706673582212207d96e9a6d6b52fa0c678674c1d769e100098138138466eb3083c253de0f23b9564736f6c63430008140033",
  "linkReferences": {},
  "deployedLinkReferences": {}
}