{
  "_format": "hh-sol-artifact-1",
  "contractName": "DriverProfileNFT",
  "sourceName": "contracts/token/DriverProfileNFT.sol",
  "abi": [
    {
      "inputs": [
        {
          "internalType": "address",
          "name": "admin",
          "type": "address"
        }
      ],
      "stateMutability": "nonpayable",
      "type": "constructor"
    },
    {
      "inputs": [],
      "name": "NonTransferable",
      "type": "error"
    },
    {
      "inputs": [],
      "name": "ProfileAlreadyExists",
      "type": "error"
    },
    {
      "anonymous": false,
      "inputs": [
        {
          "indexed": true,
          "internalType": "address",
          "name": "owner",
          "type": "address"
        },
        {
          "indexed": true,
          "internalType": "address",
          "name": "approved",
          "type": "address"
        },
        {
          "indexed": true,
          "internalType": "uint256",
          "name": "tokenId",
          "type": "uint256"
        }
      ],
      "name": "Approval",
      "type": "event"
    },
    {
      "anonymous": false,
      "inputs": [
        {
          "indexed": true,
          "internalType": "address",
          "name": "owner",
          "type": "address"
        },
        {
          "indexed": true,
          "internalType": "address",
          "name": "operator",
          "type": "address"
        },
        {
          "indexed": false,
          "internalType": "bool",
          "name": "approved",
          "type": "bool"
        }
      ],
      "name": "ApprovalForAll",
      "type": "event"
    },
    {
      "anonymous": false,
      "inputs": [
        {
          "indexed": false,
          "internalType": "uint256",
          "name": "_fromTokenId",
          "type": "uint256"
        },
        {
          "indexed": false,
          "internalType": "uint256",
          "name": "_toTokenId",
          "type": "uint256"
        }
      ],
      "name": "BatchMetadataUpdate",
      "type": "event"
    },
    {
      "anonymous": false,
      "inputs": [
        {
          "indexed": false,
          "internalType": "uint256",
          "name": "_tokenId",
          "type": "uint256"
        }
      ],
      "name": "MetadataUpdate",
      "type": "event"
    },
    {
      "anonymous": false,
      "inputs": [
        {
          "indexed": true,
          "internalType": "bytes32",
          "name": "role",
          "type": "bytes32"
        },
        {
          "indexed": true,
          "internalType": "bytes32",
          "name": "previousAdminRole",
          "type": "bytes32"
        },
        {
          "indexed": true,
          "internalType": "bytes32",
          "name": "newAdminRole",
          "type": "bytes32"
        }
      ],
      "name": "RoleAdminChanged",
      "type": "event"
    },
    {
      "anonymous": false,
      "inputs": [
        {
          "indexed": true,
          "internalType": "bytes32",
          "name": "role",
          "type": "bytes32"
        },
        {
          "indexed": true,
          "internalType": "address",
          "name": "account",
          "type": "address"
        },
        {
          "indexed": true,
          "internalType": "address",
          "name": "sender",
          "type": "address"
        }
      ],
      "name": "RoleGranted",
      "type": "event"
    },
    {
      "anonymous": false,
      "inputs": [
        {
          "indexed": true,
          "internalType": "bytes32",
          "name": "role",
          "type": "bytes32"
        },
        {
          "indexed": true,
          "internalType": "address",
          "name": "account",
          "type": "address"
        },
        {
          "indexed": true,
          "internalType": "address",
          "name": "sender",
          "type": "address"
        }
      ],
      "name": "RoleRevoked",
      "type": "event"
    },
    {
      "anonymous": false,
      "inputs": [
        {
          "indexed": true,
          "internalType": "address",
          "name": "from",
          "type": "address"
        },
        {
          "indexed": true,
          "internalType": "address",
          "name": "to",
          "type": "address"
        },
        {
          "indexed": true,
          "internalType": "uint256",
          "name": "tokenId",
          "type": "uint256"
        }
      ],
      "name": "Transfer",
      "type": "event"
    },
    {
      "inputs": [],
      "name": "DEFAULT_ADMIN_ROLE",
      "outputs": [
        {
          "internalType": "bytes32",
          "name": "",
          "type": "bytes32"
        }
      ],
      "stateMutability": "view",
      "type": "function"
    },
    {
      "inputs": [],
      "name": "MINTER_ROLE",
      "outputs": [
        {
          "internalType": "bytes32",
          "name": "",
          "type": "bytes32"
        }
      ],
      "stateMutability": "view",
      "type": "function"
    },
    {
      "inputs": [
        {
          "internalType": "uint256",
          "name": "tokenId",
          "type": "uint256"
        }
      ],
      "name": "adminBurn",
      "outputs": [],
      "stateMutability": "nonpayable",
      "type": "function"
    },
    {
      "inputs": [
        {
          "internalType": "address",
          "name": "",
          "type": "address"
        },
        {
          "internalType": "uint256",
          "name": "",
          "type": "uint256"
        }
      ],
      "name": "approve",
      "outputs": [],
      "stateMutability": "pure",
      "type": "function"
    },
    {
      "inputs": [
        {
          "internalType": "address",
          "name": "owner",
          "type": "address"
        }
      ],
      "name": "balanceOf",
      "outputs": [
        {
          "internalType": "uint256",
          "name": "",
          "type": "uint256"
        }
      ],
      "stateMutability": "view",
      "type": "function"
    },
    {
      "inputs": [
        {
          "internalType": "uint256",
          "name": "tokenId",
          "type": "uint256"
        }
      ],
      "name": "getApproved",
      "outputs": [
        {
          "internalType": "address",
          "name": "",
          "type": "address"
        }
      ],
      "stateMutability": "view",
      "type": "function"
    },
    {
      "inputs": [
        {
          "internalType": "bytes32",
          "name": "role",
          "type": "bytes32"
        }
      ],
      "name": "getRoleAdmin",
      "outputs": [
        {
          "internalType": "bytes32",
          "name": "",
          "type": "bytes32"
        }
      ],
      "stateMutability": "view",
      "type": "function"
    },
    {
      "inputs": [
        {
          "internalType": "bytes32",
          "name": "role",
          "type": "bytes32"
        },
        {
          "internalType": "address",
          "name": "account",
          "type": "address"
        }
      ],
      "name": "grantRole",
      "outputs": [],
      "stateMutability": "nonpayable",
      "type": "function"
    },
    {
      "inputs": [
        {
          "internalType": "bytes32",
          "name": "role",
          "type": "bytes32"
        },
        {
          "internalType": "address",
          "name": "account",
          "type": "address"
        }
      ],
      "name": "hasRole",
      "outputs": [
        {
          "internalType": "bool",
          "name": "",
          "type": "bool"
        }
      ],
      "stateMutability": "view",
      "type": "function"
    },
    {
      "inputs": [
        {
          "internalType": "address",
          "name": "owner",
          "type": "address"
        },
        {
          "internalType": "address",
          "name": "operator",
          "type": "address"
        }
      ],
      "name": "isApprovedForAll",
      "outputs": [
        {
          "internalType": "bool",
          "name": "",
          "type": "bool"
        }
      ],
      "stateMutability": "view",
      "type": "function"
    },
    {
      "inputs": [
        {
          "internalType": "address",
          "name": "driver",
          "type": "address"
        },
        {
          "internalType": "string",
          "name": "uri",
          "type": "string"
        }
      ],
      "name": "mintProfile",
      "outputs": [
        {
          "internalType": "uint256",
          "name": "tokenId",
          "type": "uint256"
        }
      ],
      "stateMutability": "nonpayable",
      "type": "function"
    },
    {
      "inputs": [],
      "name": "name",
      "outputs": [
        {
          "internalType": "string",
          "name": "",
          "type": "string"
        }
      ],
      "stateMutability": "view",
      "type": "function"
    },
    {
      "inputs": [
        {
          "internalType": "uint256",
          "name": "tokenId",
          "type": "uint256"
        }
      ],
      "name": "ownerOf",
      "outputs": [
        {
          "internalType": "address",
          "name": "",
          "type": "address"
        }
      ],
      "stateMutability": "view",
      "type": "function"
    },
    {
      "inputs": [
        {
          "internalType": "address",
          "name": "",
          "type": "address"
        }
      ],
      "name": "profileTokenOf",
      "outputs": [
        {
          "internalType": "uint256",
          "name": "",
          "type": "uint256"
        }
      ],
      "stateMutability": "view",
      "type": "function"
    },
    {
      "inputs": [
        {
          "internalType": "bytes32",
          "name": "role",
          "type": "bytes32"
        },
        {
          "internalType": "address",
          "name": "account",
          "type": "address"
        }
      ],
      "name": "renounceRole",
      "outputs": [],
      "stateMutability": "nonpayable",
      "type": "function"
    },
    {
      "inputs": [
        {
          "internalType": "bytes32",
          "name": "role",
          "type": "bytes32"
        },
        {
          "internalType": "address",
          "name": "account",
          "type": "address"
        }
      ],
      "name": "revokeRole",
      "outputs": [],
      "stateMutability": "nonpayable",
      "type": "function"
    },
    {
      "inputs": [
        {
          "internalType": "address",
          "name": "from",
          "type": "address"
        },
        {
          "internalType": "address",
          "name": "to",
          "type": "address"
        },
        {
          "internalType": "uint256",
          "name": "tokenId",
          "type": "uint256"
        }
      ],
      "name": "safeTransferFrom",
      "outputs": [],
      "stateMutability": "nonpayable",
      "type": "function"
    },
    {
      "inputs": [
        {
          "internalType": "address",
          "name": "from",
          "type": "address"
        },
        {
          "internalType": "address",
          "name": "to",
          "type": "address"
        },
        {
          "internalType": "uint256",
          "name": "tokenId",
          "type": "uint256"
        },
        {
          "internalType": "bytes",
          "name": "data",
          "type": "bytes"
        }
      ],
      "name": "safeTransferFrom",
      "outputs": [],
      "stateMutability": "nonpayable",
      "type": "function"
    },
    {
      "inputs": [
        {
          "internalType": "address",
          "name": "",
          "type": "address"
        },
        {
          "internalType": "bool",
          "name": "",
          "type": "bool"
        }
      ],
      "name": "setApprovalForAll",
      "outputs": [],
      "stateMutability": "pure",
      "type": "function"
    },
    {
      "inputs": [
        {
          "internalType": "bytes4",
          "name": "interfaceId",
          "type": "bytes4"
        }
      ],
      "name": "supportsInterface",
      "outputs": [
        {
          "internalType": "bool",
          "name": "",
          "type": "bool"
        }
      ],
      "stateMutability": "view",
      "type": "function"
    },
    {
      "inputs": [],
      "name": "symbol",
      "outputs": [
        {
          "internalType": "string",
          "name": "",
          "type": "string"
        }
      ],
      "stateMutability": "view",
      "type": "function"
    },
    {
      "inputs": [
        {
          "internalType": "uint256",
          "name": "tokenId",
          "type": "uint256"
        }
      ],
      "name": "tokenURI",
      "outputs": [
        {
          "internalType": "string",
          "name": "",
          "type": "string"
        }
      ],
      "stateMutability": "view",
      "type": "function"
    },
    {
      "inputs": [
        {
          "internalType": "address",
          "name": "from",
          "type": "address"
        },
        {
          "internalType": "address",
          "name": "to",
          "type": "address"
        },
        {
          "internalType": "uint256",
          "name": "tokenId",
          "type": "uint256"
        }
      ],
      "name": "transferFrom",
      "outputs": [],
      "stateMutability": "nonpayable",
      "type": "function"
    }
  ],
  "bytecode": "0x60806040523480156200001157600080fd5b506040516200206d3803806200206d833981016040819052620000349162000184565b6040518060400160405280600d81526020016c44726976657250726f66696c6560981b8152506040518060400160405280600781526020016622292b282927a360c91b81525081600090816200008b91906200025b565b5060016200009a82826200025b565b50620000ac91506000905082620000df565b620000d87f9f2df0fed2c77648de5860a4cc508cd0818c85b8b8a1ab4ceeef8d981c8956a682620000df565b5062000327565b60008281526007602090815260408083206001600160a01b038516845290915290205460ff16620001805760008281526007602090815260408083206001600160a01b03851684529091529020805460ff191660011790556200013f3390565b6001600160a01b0316816001600160a01b0316837f2f8788117e7eff1d82e926ec794901d17c78024a50270940304540a733656f0d60405160405180910390a45b5050565b6000602082840312156200019757600080fd5b81516001600160a01b0381168114620001af57600080fd5b9392505050565b634e487b7160e01b600052604160045260246000fd5b600181811c90821680620001e157607f821691505b6020821081036200020257634e487b7160e01b600052602260045260246000fd5b50919050565b601f8211156200025657600081815260208120601f850160051c81016020861015620002315750805b601f850160051c820191505b8181101562000252578281556001016200023d565b5050505b505050565b81516001600160401b03811115620002775762000277620001b6565b6200028f81620002888454620001cc565b8462000208565b602080601f831160018114620002c75760008415620002ae5750858301515b600019600386901b1c1916600185901b17855562000252565b600085815260208120601f198616915b82811015620002f857888601518255948401946001909101908401620002d7565b5085821015620003175787850151600019600388901b60f8161c191681555b5050505050600190811b01905550565b611d3680620003376000396000f3fe608060405234801561001057600080fd5b506004361061014d5760003560e01c806370a08231116100c3578063b88d4fde1161007c578063b88d4fde146102d6578063badb97ff146102e9578063c87b56dd146102fc578063d53913931461030f578063d547741f14610336578063e985e9c51461034957600080fd5b806370a082311461027f578063741059b51461029257806391d14854146102a557806395d89b41146102b8578063a217fddf146102c0578063a22cb465146102c857600080fd5b806323b872dd1161011557806323b872dd146101fd578063248a9ca3146102105780632f2ff15d1461023357806336568abe1461024657806342842e0e146102595780636352211e1461026c57600080fd5b806301ffc9a71461015257806306fdde031461017a578063081812fc1461018f578063095ea7b3146101ba5780631e11b41f146101cf575b600080fd5b61016561016036600461161e565b610385565b60405190151581526020015b60405180910390f35b610182610396565b604051610171919061168b565b6101a261019d36600461169e565b610428565b6040516001600160a01b039091168152602001610171565b6101cd6101c83660046116d3565b61044f565b005b6101ef6101dd3660046116fd565b60096020526000908152604090205481565b604051908152602001610171565b6101cd61020b366004611718565b610468565b6101ef61021e36600461169e565b60009081526007602052604090206001015490565b6101cd610241366004611754565b6104a7565b6101cd610254366004611754565b6104cc565b6101cd610267366004611718565b61054a565b6101a261027a36600461169e565b610565565b6101ef61028d3660046116fd565b6105c5565b6101ef6102a036600461180c565b61064b565b6101656102b3366004611754565b6106f9565b610182610724565b6101ef600081565b6101cd6101c836600461186e565b6101cd6102e43660046118aa565b610733565b6101cd6102f736600461169e565b61076b565b61018261030a36600461169e565b6107a5565b6101ef7f9f2df0fed2c77648de5860a4cc508cd0818c85b8b8a1ab4ceeef8d981c8956a681565b6101cd610344366004611754565b6107b0565b610165610357366004611926565b6001600160a01b03918216600090815260056020908152604080832093909416825291909152205460ff1690565b6000610390826107d5565b92915050565b6060600080546103a590611950565b80601f01602080910402602001604051908101604052809291908181526020018280546103d190611950565b801561041e5780601f106103f35761010080835404028352916020019161041e565b820191906000526020600020905b81548152906001019060200180831161040157829003601f168201915b5050505050905090565b6000610433826107fa565b506000908152600460205260409020546001600160a01b031690565b604051639cbe235760e01b815260040160405180910390fd5b610472338261085c565b6104975760405162461bcd60e51b815260040161048e9061198a565b60405180910390fd5b6104a28383836108db565b505050565b6000828152600760205260409020600101546104c281610a4c565b6104a28383610a56565b6001600160a01b038116331461053c5760405162461bcd60e51b815260206004820152602f60248201527f416363657373436f6e74726f6c3a2063616e206f6e6c792072656e6f756e636560448201526e103937b632b9903337b91039b2b63360891b606482015260840161048e565b6105468282610adc565b5050565b6104a283838360405180602001604052806000815250610733565b6000818152600260205260408120546001600160a01b0316806103905760405162461bcd60e51b8152602060048201526018602482015277115490cdcc8c4e881a5b9d985b1a59081d1bdad95b88125160421b604482015260640161048e565b60006001600160a01b03821661062f5760405162461bcd60e51b815260206004820152602960248201527f4552433732313a2061646472657373207a65726f206973206e6f7420612076616044820152683634b21037bbb732b960b91b606482015260840161048e565b506001600160a01b031660009081526003602052604090205490565b60007f9f2df0fed2c77648de5860a4cc508cd0818c85b8b8a1ab4ceeef8d981c8956a661067781610a4c565b6001600160a01b038416600090815260096020526040902054156106ae576040516337450d8560e11b815260040160405180910390fd5b6008600081546106bd906119ed565b918290555091506106ce8483610b43565b6106d88284610b5d565b506001600160a01b0390921660009081526009602052604090208290555090565b60009182526007602090815260408084206001600160a01b0393909316845291905290205460ff1690565b6060600180546103a590611950565b61073d338361085c565b6107595760405162461bcd60e51b815260040161048e9061198a565b61076584848484610c28565b50505050565b600061077681610a4c565b600061078183610565565b6001600160a01b03811660009081526009602052604081205590506104a283610c5b565b606061039082610c64565b6000828152600760205260409020600101546107cb81610a4c565b6104a28383610adc565b60006001600160e01b03198216637965db0b60e01b1480610390575061039082610d6c565b6000818152600260205260409020546001600160a01b03166108595760405162461bcd60e51b8152602060048201526018602482015277115490cdcc8c4e881a5b9d985b1a59081d1bdad95b88125160421b604482015260640161048e565b50565b60008061086883610565565b9050806001600160a01b0316846001600160a01b031614806108af57506001600160a01b0380821660009081526005602090815260408083209388168352929052205460ff165b806108d35750836001600160a01b03166108c884610428565b6001600160a01b0316145b949350505050565b826001600160a01b03166108ee82610565565b6001600160a01b0316146109145760405162461bcd60e51b815260040161048e90611a06565b6001600160a01b0382166109765760405162461bcd60e51b8152602060048201526024808201527f4552433732313a207472616e7366657220746f20746865207a65726f206164646044820152637265737360e01b606482015260840161048e565b6109838383836001610d91565b826001600160a01b031661099682610565565b6001600160a01b0316146109bc5760405162461bcd60e51b815260040161048e90611a06565b600081815260046020908152604080832080546001600160a01b03199081169091556001600160a01b0387811680865260038552838620805460001901905590871680865283862080546001019055868652600290945282852080549092168417909155905184937fddf252ad1be2c89b69c2b068fc378daa952ba7f163c4a11628f55a4df523b3ef91a4505050565b6108598133610dd4565b610a6082826106f9565b6105465760008281526007602090815260408083206001600160a01b03851684529091529020805460ff19166001179055610a983390565b6001600160a01b0316816001600160a01b0316837f2f8788117e7eff1d82e926ec794901d17c78024a50270940304540a733656f0d60405160405180910390a45050565b610ae682826106f9565b156105465760008281526007602090815260408083206001600160a01b0385168085529252808320805460ff1916905551339285917ff6391f5c32d9c69d2a47ea670b442974b53935d1edc7fd64eb21e047a839171b9190a45050565b610546828260405180602001604052806000815250610e2d565b6000828152600260205260409020546001600160a01b0316610bd85760405162461bcd60e51b815260206004820152602e60248201527f45524337323155524953746f726167653a2055524920736574206f66206e6f6e60448201526d32bc34b9ba32b73a103a37b5b2b760911b606482015260840161048e565b6000828152600660205260409020610bf08282611a99565b506040518281527ff8e1a15aba9398e019f0b49df1a4fde98ee17ae345cb5f6b5e2c27f5033e8ce79060200160405180910390a15050565b610c338484846108db565b610c3f84848484610e60565b6107655760405162461bcd60e51b815260040161048e90611b59565b61085981610f61565b6060610c6f826107fa565b60008281526006602052604081208054610c8890611950565b80601f0160208091040260200160405190810160405280929190818152602001828054610cb490611950565b8015610d015780601f10610cd657610100808354040283529160200191610d01565b820191906000526020600020905b815481529060010190602001808311610ce457829003601f168201915b505050505090506000610d1f60408051602081019091526000815290565b90508051600003610d31575092915050565b815115610d63578082604051602001610d4b929190611bab565b60405160208183030381529060405292505050919050565b6108d384610fa1565b60006001600160e01b03198216632483248360e11b1480610390575061039082611015565b6001600160a01b03841615801590610db157506001600160a01b03831615155b15610dcf57604051639cbe235760e01b815260040160405180910390fd5b610765565b610dde82826106f9565b61054657610deb81611065565b610df6836020611077565b604051602001610e07929190611bda565b60408051601f198184030181529082905262461bcd60e51b825261048e9160040161168b565b610e378383611213565b610e446000848484610e60565b6104a25760405162461bcd60e51b815260040161048e90611b59565b60006001600160a01b0384163b15610f5657604051630a85bd0160e11b81526001600160a01b0385169063150b7a0290610ea4903390899088908890600401611c4f565b6020604051808303816000875af1925050508015610edf575060408051601f3d908101601f19168201909252610edc91810190611c8c565b60015b610f3c573d808015610f0d576040519150601f19603f3d011682016040523d82523d6000602084013e610f12565b606091505b508051600003610f345760405162461bcd60e51b815260040161048e90611b59565b805181602001fd5b6001600160e01b031916630a85bd0160e11b1490506108d3565b506001949350505050565b610f6a816113ac565b60008181526006602052604090208054610f8390611950565b159050610859576000818152600660205260408120610859916115ba565b6060610fac826107fa565b6000610fc360408051602081019091526000815290565b90506000815111610fe3576040518060200160405280600081525061100e565b80610fed8461144f565b604051602001610ffe929190611bab565b6040516020818303038152906040525b9392505050565b60006001600160e01b031982166380ac58cd60e01b148061104657506001600160e01b03198216635b5e139f60e01b145b8061039057506301ffc9a760e01b6001600160e01b0319831614610390565b60606103906001600160a01b03831660145b60606000611086836002611ca9565b611091906002611cc0565b67ffffffffffffffff8111156110a9576110a9611780565b6040519080825280601f01601f1916602001820160405280156110d3576020820181803683370190505b509050600360fc1b816000815181106110ee576110ee611cd3565b60200101906001600160f81b031916908160001a905350600f60fb1b8160018151811061111d5761111d611cd3565b60200101906001600160f81b031916908160001a9053506000611141846002611ca9565b61114c906001611cc0565b90505b60018111156111c4576f181899199a1a9b1b9c1cb0b131b232b360811b85600f166010811061118057611180611cd3565b1a60f81b82828151811061119657611196611cd3565b60200101906001600160f81b031916908160001a90535060049490941c936111bd81611ce9565b905061114f565b50831561100e5760405162461bcd60e51b815260206004820181905260248201527f537472696e67733a20686578206c656e67746820696e73756666696369656e74604482015260640161048e565b6001600160a01b0382166112695760405162461bcd60e51b815260206004820181905260248201527f4552433732313a206d696e7420746f20746865207a65726f2061646472657373604482015260640161048e565b6000818152600260205260409020546001600160a01b0316156112ce5760405162461bcd60e51b815260206004820152601c60248201527f4552433732313a20746f6b656e20616c7265616479206d696e74656400000000604482015260640161048e565b6112dc600083836001610d91565b6000818152600260205260409020546001600160a01b0316156113415760405162461bcd60e51b815260206004820152601c60248201527f4552433732313a20746f6b656e20616c7265616479206d696e74656400000000604482015260640161048e565b6001600160a01b038216600081815260036020908152604080832080546001019055848352600290915280822080546001600160a01b0319168417905551839291907fddf252ad1be2c89b69c2b068fc378daa952ba7f163c4a11628f55a4df523b3ef908290a45050565b60006113b782610565565b90506113c7816000846001610d91565b6113d082610565565b600083815260046020908152604080832080546001600160a01b03199081169091556001600160a01b0385168085526003845282852080546000190190558785526002909352818420805490911690555192935084927fddf252ad1be2c89b69c2b068fc378daa952ba7f163c4a11628f55a4df523b3ef908390a45050565b6060600061145c836114e2565b600101905060008167ffffffffffffffff81111561147c5761147c611780565b6040519080825280601f01601f1916602001820160405280156114a6576020820181803683370190505b5090508181016020015b600019016f181899199a1a9b1b9c1cb0b131b232b360811b600a86061a8153600a85049450846114b057509392505050565b60008072184f03e93ff9f4daa797ed6e38ed64bf6a1f0160401b83106115215772184f03e93ff9f4daa797ed6e38ed64bf6a1f0160401b830492506040015b6d04ee2d6d415b85acef8100000000831061154d576d04ee2d6d415b85acef8100000000830492506020015b662386f26fc10000831061156b57662386f26fc10000830492506010015b6305f5e1008310611583576305f5e100830492506008015b612710831061159757612710830492506004015b606483106115a9576064830492506002015b600a83106103905760010192915050565b5080546115c690611950565b6000825580601f106115d6575050565b601f01602090049060005260206000209081019061085991905b8082111561160457600081556001016115f0565b5090565b6001600160e01b03198116811461085957600080fd5b60006020828403121561163057600080fd5b813561100e81611608565b60005b8381101561165657818101518382015260200161163e565b50506000910152565b6000815180845261167781602086016020860161163b565b601f01601f19169290920160200192915050565b60208152600061100e602083018461165f565b6000602082840312156116b057600080fd5b5035919050565b80356001600160a01b03811681146116ce57600080fd5b919050565b600080604083850312156116e657600080fd5b6116ef836116b7565b946020939093013593505050565b60006020828403121561170f57600080fd5b61100e826116b7565b60008060006060848603121561172d57600080fd5b611736846116b7565b9250611744602085016116b7565b9150604084013590509250925092565b6000806040838503121561176757600080fd5b82359150611777602084016116b7565b90509250929050565b634e487b7160e01b600052604160045260246000fd5b600067ffffffffffffffff808411156117b1576117b1611780565b604051601f8501601f19908116603f011681019082821181831017156117d9576117d9611780565b816040528093508581528686860111156117f257600080fd5b858560208301376000602087830101525050509392505050565b6000806040838503121561181f57600080fd5b611828836116b7565b9150602083013567ffffffffffffffff81111561184457600080fd5b8301601f8101851361185557600080fd5b61186485823560208401611796565b9150509250929050565b6000806040838503121561188157600080fd5b61188a836116b7565b91506020830135801515811461189f57600080fd5b809150509250929050565b600080600080608085870312156118c057600080fd5b6118c9856116b7565b93506118d7602086016116b7565b925060408501359150606085013567ffffffffffffffff8111156118fa57600080fd5b8501601f8101871361190b57600080fd5b61191a87823560208401611796565b91505092959194509250565b6000806040838503121561193957600080fd5b611942836116b7565b9150611777602084016116b7565b600181811c9082168061196457607f821691505b60208210810361198457634e487b7160e01b600052602260045260246000fd5b50919050565b6020808252602d908201527f4552433732313a2063616c6c6572206973206e6f7420746f6b656e206f776e6560408201526c1c881bdc88185c1c1c9bdd9959609a1b606082015260800190565b634e487b7160e01b600052601160045260246000fd5b6000600182016119ff576119ff6119d7565b5060010190565b60208082526025908201527f4552433732313a207472616e736665722066726f6d20696e636f72726563742060408201526437bbb732b960d91b606082015260800190565b601f8211156104a257600081815260208120601f850160051c81016020861015611a725750805b601f850160051c820191505b81811015611a9157828155600101611a7e565b505050505050565b815167ffffffffffffffff811115611ab357611ab3611780565b611ac781611ac18454611950565b84611a4b565b602080601f831160018114611afc5760008415611ae45750858301515b600019600386901b1c1916600185901b178555611a91565b600085815260208120601f198616915b82811015611b2b57888601518255948401946001909101908401611b0c565b5085821015611b495787850151600019600388901b60f8161c191681555b5050505050600190811b01905550565b60208082526032908201527f4552433732313a207472616e7366657220746f206e6f6e20455243373231526560408201527131b2b4bb32b91034b6b83632b6b2b73a32b960711b606082015260800190565b60008351611bbd81846020880161163b565b835190830190611bd181836020880161163b565b01949350505050565b7f416363657373436f6e74726f6c3a206163636f756e7420000000000000000000815260008351611c1281601785016020880161163b565b7001034b99036b4b9b9b4b733903937b6329607d1b6017918401918201528351611c4381602884016020880161163b565b01602801949350505050565b6001600160a01b0385811682528416602082015260408101839052608060608201819052600090611c829083018461165f565b9695505050505050565b600060208284031215611c9e57600080fd5b815161100e81611608565b8082028115828204841417610390576103906119d7565b80820180821115610390576103906119d7565b634e487b7160e01b600052603260045260246000fd5b600081611cf857611cf86119d7565b50600019019056fea26469706673582212201efb32575f400d47a213f9e426fd49c9b29b0b58b1b730076df633affc81082264736f6c63430008140033",
  "linkReferences": {},
  "deployedLinkReferences": {}
}