{
  "_format": "hh-sol-artifact-1",
  "contractName": "FoodGovernanceDAO",
  "sourceName": "contracts/core/FoodGovernanceDAO.sol",
  "abi": [
    {
      "inputs": [
        {
          "internalType": "address",
          "name": "admin",
          "type": "address"
        }
      ],
      "stateMutability": "nonpayable",
      "type": "constructor"
    },
    {
      "anonymous": false,
      "inputs": [
        {
          "indexed": true,
          "internalType": "uint256",
          "name": "proposalId",
          "type": "uint256"
        }
      ],
      "name": "ProposalCreated",
      "type": "event"
    },
    {
      "anonymous": false,
      "inputs": [
        {
          "indexed": true,
          "internalType": "uint256",
          "name": "proposalId",
          "type": "uint256"
        }
      ],
      "name": "ProposalExecuted",
      "type": "event"
    },
    {
      "anonymous": false,
      "inputs": [
        {
          "indexed": true,
          "internalType": "bytes32",
          "name": "role",
          "type": "bytes32"
        },
        {
          "indexed": true,
          "internalType": "bytes32",
          "name": "previousAdminRole",
          "type": "bytes32"
        },
        {
          "indexed": true,
          "internalType": "bytes32",
          "name": "newAdminRole",
          "type": "bytes32"
        }
      ],
      "name": "RoleAdminChanged",
      "type": "event"
    },
    {
      "anonymous": false,
      "inputs": [
        {
          "indexed": true,
          "internalType": "bytes32",
          "name": "role",
          "type": "bytes32"
        },
        {
          "indexed": true,
          "internalType": "address",
          "name": "account",
          "type": "address"
        },
        {
          "indexed": true,
          "internalType": "address",
          "name": "sender",
          "type": "address"
        }
      ],
      "name": "RoleGranted",
      "type": "event"
    },
    {
      "anonymous": false,
      "inputs": [
        {
          "indexed": true,
          "internalType": "bytes32",
          "name": "role",
          "type": "bytes32"
        },
        {
          "indexed": true,
          "internalType": "address",
          "name": "account",
          "type": "address"
        },
        {
          "indexed": true,
          "internalType": "address",
          "name": "sender",
          "type": "address"
        }
      ],
      "name": "RoleRevoked",
      "type": "event"
    },
    {
      "anonymous": false,
      "inputs": [
        {
          "indexed": true,
          "internalType": "uint256",
          "name": "proposalId",
          "type": "uint256"
        },
        {
          "indexed": true,
          "internalType": "address",
          "name": "voter",
          "type": "address"
        },
        {
          "indexed": false,
          "internalType": "bool",
          "name": "support",
          "type": "bool"
        }
      ],
      "name": "Voted",
      "type": "event"
    },
    {
      "inputs": [],
      "name": "DEFAULT_ADMIN_ROLE",
      "outputs": [
        {
          "internalType": "bytes32",
          "name": "",
          "type": "bytes32"
        }
      ],
      "stateMutability": "view",
      "type": "function"
    },
    {
      "inputs": [],
      "name": "OPERATOR_ROLE",
      "outputs": [
        {
          "internalType": "bytes32",
          "name": "",
          "type": "bytes32"
        }
      ],
      "stateMutability": "view",
      "type": "function"
    },
    {
      "inputs": [
        {
          "internalType": "uint256",
          "name": "duration",
          "type": "uint256"
        }
      ],
      "name": "createProposal",
      "outputs": [
        {
          "internalType": "uint256",
          "name": "proposalId",
          "type": "uint256"
        }
      ],
      "stateMutability": "nonpayable",
      "type": "function"
    },
    {
      "inputs": [
        {
          "internalType": "uint256",
          "name": "proposalId",
          "type": "uint256"
        }
      ],
      "name": "executeProposal",
      "outputs": [],
      "stateMutability": "nonpayable",
      "type": "function"
    },
    {
      "inputs": [
        {
          "internalType": "bytes32",
          "name": "role",
          "type": "bytes32"
        }
      ],
      "name": "getRoleAdmin",
      "outputs": [
        {
          "internalType": "bytes32",
          "name": "",
          "type": "bytes32"
        }
      ],
      "stateMutability": "view",
      "type": "function"
    },
    {
      "inputs": [
        {
          "internalType": "bytes32",
          "name": "role",
          "type": "bytes32"
        },
        {
          "internalType": "address",
          "name": "account",
          "type": "address"
        }
      ],
      "name": "grantRole",
      "outputs": [],
      "stateMutability": "nonpayable",
      "type": "function"
    },
    {
      "inputs": [
        {
          "internalType": "bytes32",
          "name": "role",
          "type": "bytes32"
        },
        {
          "internalType": "address",
          "name": "account",
          "type": "address"
        }
      ],
      "name": "hasRole",
      "outputs": [
        {
          "internalType": "bool",
          "name": "",
          "type": "bool"
        }
      ],
      "stateMutability": "view",
      "type": "function"
    },
    {
      "inputs": [
        {
          "internalType": "uint256",
          "name": "",
          "type": "uint256"
        },
        {
          "internalType": "address",
          "name": "",
          "type": "address"
        }
      ],
      "name": "hasVoted",
      "outputs": [
        {
          "internalType": "bool",
          "name": "",
          "type": "bool"
        }
      ],
      "stateMutability": "view",
      "type": "function"
    },
    {
      "inputs": [],
      "name": "nextProposalId",
      "outputs": [
        {
          "internalType": "uint256",
          "name": "",
          "type": "uint256"
        }
      ],
      "stateMutability": "view",
      "type": "function"
    },
    {
      "inputs": [
        {
          "internalType": "uint256",
          "name": "",
          "type": "uint256"
        }
      ],
      "name": "proposals",
      "outputs": [
        {
          "internalType": "uint256",
          "name": "id",
          "type": "uint256"
        },
        {
          "internalType": "uint256",
          "name": "yesVotes",
          "type": "uint256"
        },
        {
          "internalType": "uint256",
          "name": "noVotes",
          "type": "uint256"
        },
        {
          "internalType": "uint256",
          "name": "endTime",
          "type": "uint256"
        },
        {
          "internalType": "bool",
          "name": "executed",
          "type": "bool"
        }
      ],
      "stateMutability": "view",
      "type": "function"
    },
    {
      "inputs": [
        {
          "internalType": "bytes32",
          "name": "role",
          "type": "bytes32"
        },
        {
          "internalType": "address",
          "name": "account",
          "type": "address"
        }
      ],
      "name": "renounceRole",
      "outputs": [],
      "stateMutability": "nonpayable",
      "type": "function"
    },
    {
      "inputs": [
        {
          "internalType": "bytes32",
          "name": "role",
          "type": "bytes32"
        },
        {
          "internalType": "address",
          "name": "account",
          "type": "address"
        }
      ],
      "name": "revokeRole",
      "outputs": [],
      "stateMutability": "nonpayable",
      "type": "function"
    },
    {
      "inputs": [
        {
          "internalType": "bytes4",
          "name": "interfaceId",
          "type": "bytes4"
        }
      ],
      "name": "supportsInterface",
      "outputs": [
        {
          "internalType": "bool",
          "name": "",
          "type": "bool"
        }
      ],
      "stateMutability": "view",
      "type": "function"
    },
    {
      "inputs": [
        {
          "internalType": "uint256",
          "name": "proposalId",
          "type": "uint256"
        },
        {
          "internalType": "bool",
          "name": "support",
          "type": "bool"
        }
      ],
      "name": "vote",
      "outputs": [],
      "stateMutability": "nonpayable",
      "type": "function"
    }
  ],
  "bytecode": "0x608060405234801561001057600080fd5b50604051610f15380380610f1583398101604081905261002f91610109565b61003a60008261006a565b6100647f97667070c54ef182b0f5858b034beac1b6f3089aa2d3188bb1e8929f4fa9b9298261006a565b50610139565b6000828152602081815260408083206001600160a01b038516845290915290205460ff16610105576000828152602081815260408083206001600160a01b03851684529091529020805460ff191660011790556100c43390565b6001600160a01b0316816001600160a01b0316837f2f8788117e7eff1d82e926ec794901d17c78024a50270940304540a733656f0d60405160405180910390a45b5050565b60006020828403121561011b57600080fd5b81516001600160a01b038116811461013257600080fd5b9392505050565b610dcd806101486000396000f3fe608060405234801561001057600080fd5b50600436106100ea5760003560e01c8063438596321161008c578063a217fddf11610066578063a217fddf1461024a578063c9d27afe14610252578063d547741f14610265578063f5b541a61461027857600080fd5b806343859632146101f65780635a43dc001461022457806391d148541461023757600080fd5b8063248a9ca3116100c8578063248a9ca3146101965780632ab09d14146101c75780632f2ff15d146101d057806336568abe146101e357600080fd5b8063013cf08b146100ef57806301ffc9a71461015e5780630d61b51914610181575b600080fd5b61012f6100fd366004610b6f565b600260208190526000918252604090912080546001820154928201546003830154600490930154919392909160ff1685565b6040805195865260208601949094529284019190915260608301521515608082015260a0015b60405180910390f35b61017161016c366004610b88565b61029f565b6040519015158152602001610155565b61019461018f366004610b6f565b6102d6565b005b6101b96101a4366004610b6f565b60009081526020819052604090206001015490565b604051908152602001610155565b6101b960015481565b6101946101de366004610bce565b6104a8565b6101946101f1366004610bce565b6104d2565b610171610204366004610bce565b600360209081526000928352604080842090915290825290205460ff1681565b6101b9610232366004610b6f565b610550565b610171610245366004610bce565b610616565b6101b9600081565b610194610260366004610bfa565b61063f565b610194610273366004610bce565b610846565b6101b97f97667070c54ef182b0f5858b034beac1b6f3089aa2d3188bb1e8929f4fa9b92981565b60006001600160e01b03198216637965db0b60e01b14806102d057506301ffc9a760e01b6001600160e01b03198316145b92915050565b7f97667070c54ef182b0f5858b034beac1b6f3089aa2d3188bb1e8929f4fa9b9296103008161086b565b60008211801561031257506001548211155b6103565760405162461bcd60e51b815260206004820152601060248201526f125b9d985b1a59081c1c9bdc1bdcd85b60821b60448201526064015b60405180910390fd5b6000828152600260205260409020600301544210156103b05760405162461bcd60e51b8152602060048201526016602482015275566f74696e67206973207374696c6c2061637469766560501b604482015260640161034d565b60008281526002602052604090206004015460ff16156104055760405162461bcd60e51b815260206004820152601060248201526f105b1c9958591e48195e1958dd5d195960821b604482015260640161034d565b600082815260026020819052604090912090810154600190910154116104615760405162461bcd60e51b8152602060048201526011602482015270141c9bdc1bdcd85b081c995a9958dd1959607a1b604482015260640161034d565b600082815260026020526040808220600401805460ff191660011790555183917f712ae1383f79ac853f8d882153778e0260ef8f03b504e2866e0593e04d2b291f91a25050565b6000828152602081905260409020600101546104c38161086b565b6104cd8383610878565b505050565b6001600160a01b03811633146105425760405162461bcd60e51b815260206004820152602f60248201527f416363657373436f6e74726f6c3a2063616e206f6e6c792072656e6f756e636560448201526e103937b632b9903337b91039b2b63360891b606482015260840161034d565b61054c82826108fc565b5050565b600060016000815461056190610c45565b91905081905590506040518060a00160405280828152602001600081526020016000815260200183426105949190610c5e565b81526000602091820181905283815260028083526040808320855181559385015160018501558481015191840191909155606084015160038401556080909301516004909201805460ff191692151592909217909155905182917fc2c021f5d73c63c481d336fbbafec58f694fc45095f00b02d2deb8cca59afe0791a2919050565b6000918252602082815260408084206001600160a01b0393909316845291905290205460ff1690565b60008211801561065157506001548211155b6106905760405162461bcd60e51b815260206004820152601060248201526f125b9d985b1a59081c1c9bdc1bdcd85b60821b604482015260640161034d565b60008281526002602052604090206003015442106106e65760405162461bcd60e51b8152602060048201526013602482015272159bdd1a5b99c81c195c9a5bd908195b991959606a1b604482015260640161034d565b600082815260036020908152604080832033845290915290205460ff16156107405760405162461bcd60e51b815260206004820152600d60248201526c105b1c9958591e481d9bdd1959609a1b604482015260640161034d565b60008281526002602052604090206004015460ff16156107955760405162461bcd60e51b815260206004820152601060248201526f105b1c9958591e48195e1958dd5d195960821b604482015260640161034d565b60008281526003602090815260408083203384529091529020805460ff1916600117905580156107e65760008281526002602052604081206001018054916107dc83610c45565b9190505550610809565b600082815260026020819052604082200180549161080383610c45565b91905055505b6040518115158152339083907ff2913dbe661ee2acc4a046d8fbcdc792373bda34c41c6086484b5345e5785e5f9060200160405180910390a35050565b6000828152602081905260409020600101546108618161086b565b6104cd83836108fc565b6108758133610961565b50565b6108828282610616565b61054c576000828152602081815260408083206001600160a01b03851684529091529020805460ff191660011790556108b83390565b6001600160a01b0316816001600160a01b0316837f2f8788117e7eff1d82e926ec794901d17c78024a50270940304540a733656f0d60405160405180910390a45050565b6109068282610616565b1561054c576000828152602081815260408083206001600160a01b0385168085529252808320805460ff1916905551339285917ff6391f5c32d9c69d2a47ea670b442974b53935d1edc7fd64eb21e047a839171b9190a45050565b61096b8282610616565b61054c57610978816109ba565b6109838360206109cc565b604051602001610994929190610c95565b60408051601f198184030181529082905262461bcd60e51b825261034d91600401610d0a565b60606102d06001600160a01b03831660145b606060006109db836002610d3d565b6109e6906002610c5e565b67ffffffffffffffff8111156109fe576109fe610d54565b6040519080825280601f01601f191660200182016040528015610a28576020820181803683370190505b509050600360fc1b81600081518110610a4357610a43610d6a565b60200101906001600160f81b031916908160001a905350600f60fb1b81600181518110610a7257610a72610d6a565b60200101906001600160f81b031916908160001a9053506000610a96846002610d3d565b610aa1906001610c5e565b90505b6001811115610b19576f181899199a1a9b1b9c1cb0b131b232b360811b85600f1660108110610ad557610ad5610d6a565b1a60f81b828281518110610aeb57610aeb610d6a565b60200101906001600160f81b031916908160001a90535060049490941c93610b1281610d80565b9050610aa4565b508315610b685760405162461bcd60e51b815260206004820181905260248201527f537472696e67733a20686578206c656e67746820696e73756666696369656e74604482015260640161034d565b9392505050565b600060208284031215610b8157600080fd5b5035919050565b600060208284031215610b9a57600080fd5b81356001600160e01b031981168114610b6857600080fd5b80356001600160a01b0381168114610bc957600080fd5b919050565b60008060408385031215610be157600080fd5b82359150610bf160208401610bb2565b90509250929050565b60008060408385031215610c0d57600080fd5b8235915060208301358015158114610c2457600080fd5b809150509250929050565b634e487b7160e01b600052601160045260246000fd5b600060018201610c5757610c57610c2f565b5060010190565b808201808211156102d0576102d0610c2f565b60005b83811015610c8c578181015183820152602001610c74565b50506000910152565b7f416363657373436f6e74726f6c3a206163636f756e7420000000000000000000815260008351610ccd816017850160208801610c71565b7001034b99036b4b9b9b4b733903937b6329607d1b6017918401918201528351610cfe816028840160208801610c71565b01602801949350505050565b6020815260008251806020840152610d29816040850160208701610c71565b601f01601f19169190910160400192915050565b80820281158282048414176102d0576102d0610c2f565b634e487b7160e01b600052604160045260246000fd5b634e487b7160e01b600052603260045260246000fd5b600081610d8f57610d8f610c2f565b50600019019056fea26469706673582212201ebc87584fd95800ef055c4bd7f427b81117daadff8b31c66ea158617eddcada64736f6c63430008140033",
  "linkReferences": {},
  "deployedLinkReferences": {}
}