{
  "_format": "hh-sol-artifact-1",
  "contractName": "GreenDeliveryNFT",
  "sourceName": "contracts/token/GreenDeliveryNFT.sol",
  "abi": [
    {
      "inputs": [
        {
          "internalType": "address",
          "name": "admin",
          "type": "address"
        }
      ],
      "stateMutability": "nonpayable",
      "type": "constructor"
    },
    {
      "anonymous": false,
      "inputs": [
        {
          "indexed": true,
          "internalType": "address",
          "name": "owner",
          "type": "address"
        },
        {
          "indexed": true,
          "internalType": "address",
          "name": "approved",
          "type": "address"
        },
        {
          "indexed": true,
          "internalType": "uint256",
          "name": "tokenId",
          "type": "uint256"
        }
      ],
      "name": "Approval",
      "type": "event"
    },
    {
      "anonymous": false,
      "inputs": [
        {
          "indexed": true,
          "internalType": "address",
          "name": "owner",
          "type": "address"
        },
        {
          "indexed": true,
          "internalType": "address",
          "name": "operator",
          "type": "address"
        },
        {
          "indexed": false,
          "internalType": "bool",
          "name": "approved",
          "type": "bool"
        }
      ],
      "name": "ApprovalForAll",
      "type": "event"
    },
    {
      "anonymous": false,
      "inputs": [
        {
          "indexed": false,
          "internalType": "uint256",
          "name": "_fromTokenId",
          "type": "uint256"
        },
        {
          "indexed": false,
          "internalType": "uint256",
          "name": "_toTokenId",
          "type": "uint256"
        }
      ],
      "name": "BatchMetadataUpdate",
      "type": "event"
    },
    {
      "anonymous": false,
      "inputs": [
        {
          "indexed": false,
          "internalType": "uint256",
          "name": "_tokenId",
          "type": "uint256"
        }
      ],
      "name": "MetadataUpdate",
      "type": "event"
    },
    {
      "anonymous": false,
      "inputs": [
        {
          "indexed": true,
          "internalType": "bytes32",
          "name": "role",
          "type": "bytes32"
        },
        {
          "indexed": true,
          "internalType": "bytes32",
          "name": "previousAdminRole",
          "type": "bytes32"
        },
        {
          "indexed": true,
          "internalType": "bytes32",
          "name": "newAdminRole",
          "type": "bytes32"
        }
      ],
      "name": "RoleAdminChanged",
      "type": "event"
    },
    {
      "anonymous": false,
      "inputs": [
        {
          "indexed": true,
          "internalType": "bytes32",
          "name": "role",
          "type": "bytes32"
        },
        {
          "indexed": true,
          "internalType": "address",
          "name": "account",
          "type": "address"
        },
        {
          "indexed": true,
          "internalType": "address",
          "name": "sender",
          "type": "address"
        }
      ],
      "name": "RoleGranted",
      "type": "event"
    },
    {
      "anonymous": false,
      "inputs": [
        {
          "indexed": true,
          "internalType": "bytes32",
          "name": "role",
          "type": "bytes32"
        },
        {
          "indexed": true,
          "internalType": "address",
          "name": "account",
          "type": "address"
        },
        {
          "indexed": true,
          "internalType": "address",
          "name": "sender",
          "type": "address"
        }
      ],
      "name": "RoleRevoked",
      "type": "event"
    },
    {
      "anonymous": false,
      "inputs": [
        {
          "indexed": true,
          "internalType": "address",
          "name": "from",
          "type": "address"
        },
        {
          "indexed": true,
          "internalType": "address",
          "name": "to",
          "type": "address"
        },
        {
          "indexed": true,
          "internalType": "uint256",
          "name": "tokenId",
          "type": "uint256"
        }
      ],
      "name": "Transfer",
      "type": "event"
    },
    {
      "inputs": [],
      "name": "DEFAULT_ADMIN_ROLE",
      "outputs": [
        {
          "internalType": "bytes32",
          "name": "",
          "type": "bytes32"
        }
      ],
      "stateMutability": "view",
      "type": "function"
    },
    {
      "inputs": [],
      "name": "MINTER_ROLE",
      "outputs": [
        {
          "internalType": "bytes32",
          "name": "",
          "type": "bytes32"
        }
      ],
      "stateMutability": "view",
      "type": "function"
    },
    {
      "inputs": [
        {
          "internalType": "address",
          "name": "to",
          "type": "address"
        },
        {
          "internalType": "uint256",
          "name": "tokenId",
          "type": "uint256"
        }
      ],
      "name": "approve",
      "outputs": [],
      "stateMutability": "nonpayable",
      "type": "function"
    },
    {
      "inputs": [
        {
          "internalType": "address",
          "name": "owner",
          "type": "address"
        }
      ],
      "name": "balanceOf",
      "outputs": [
        {
          "internalType": "uint256",
          "name": "",
          "type": "uint256"
        }
      ],
      "stateMutability": "view",
      "type": "function"
    },
    {
      "inputs": [
        {
          "internalType": "uint256",
          "name": "tokenId",
          "type": "uint256"
        }
      ],
      "name": "getApproved",
      "outputs": [
        {
          "internalType": "address",
          "name": "",
          "type": "address"
        }
      ],
      "stateMutability": "view",
      "type": "function"
    },
    {
      "inputs": [
        {
          "internalType": "bytes32",
          "name": "role",
          "type": "bytes32"
        }
      ],
      "name": "getRoleAdmin",
      "outputs": [
        {
          "internalType": "bytes32",
          "name": "",
          "type": "bytes32"
        }
      ],
      "stateMutability": "view",
      "type": "function"
    },
    {
      "inputs": [
        {
          "internalType": "bytes32",
          "name": "role",
          "type": "bytes32"
        },
        {
          "internalType": "address",
          "name": "account",
          "type": "address"
        }
      ],
      "name": "grantRole",
      "outputs": [],
      "stateMutability": "nonpayable",
      "type": "function"
    },
    {
      "inputs": [
        {
          "internalType": "bytes32",
          "name": "role",
          "type": "bytes32"
        },
        {
          "internalType": "address",
          "name": "account",
          "type": "address"
        }
      ],
      "name": "hasRole",
      "outputs": [
        {
          "internalType": "bool",
          "name": "",
          "type": "bool"
        }
      ],
      "stateMutability": "view",
      "type": "function"
    },
    {
      "inputs": [
        {
          "internalType": "address",
          "name": "owner",
          "type": "address"
        },
        {
          "internalType": "address",
          "name": "operator",
          "type": "address"
        }
      ],
      "name": "isApprovedForAll",
      "outputs": [
        {
          "internalType": "bool",
          "name": "",
          "type": "bool"
        }
      ],
      "stateMutability": "view",
      "type": "function"
    },
    {
      "inputs": [
        {
          "internalType": "address",
          "name": "to",
          "type": "address"
        },
        {
          "internalType": "string",
          "name": "uri",
          "type": "string"
        }
      ],
      "name": "mint",
      "outputs": [
        {
          "internalType": "uint256",
          "name": "",
          "type": "uint256"
        }
      ],
      "stateMutability": "nonpayable",
      "type": "function"
    },
    {
      "inputs": [],
      "name": "name",
      "outputs": [
        {
          "internalType": "string",
          "name": "",
          "type": "string"
        }
      ],
      "stateMutability": "view",
      "type": "function"
    },
    {
      "inputs": [
        {
          "internalType": "uint256",
          "name": "tokenId",
          "type": "uint256"
        }
      ],
      "name": "ownerOf",
      "outputs": [
        {
          "internalType": "address",
          "name": "",
          "type": "address"
        }
      ],
      "stateMutability": "view",
      "type": "function"
    },
    {
      "inputs": [
        {
          "internalType": "bytes32",
          "name": "role",
          "type": "bytes32"
        },
        {
          "internalType": "address",
          "name": "account",
          "type": "address"
        }
      ],
      "name": "renounceRole",
      "outputs": [],
      "stateMutability": "nonpayable",
      "type": "function"
    },
    {
      "inputs": [
        {
          "internalType": "bytes32",
          "name": "role",
          "type": "bytes32"
        },
        {
          "internalType": "address",
          "name": "account",
          "type": "address"
        }
      ],
      "name": "revokeRole",
      "outputs": [],
      "stateMutability": "nonpayable",
      "type": "function"
    },
    {
      "inputs": [
        {
          "internalType": "address",
          "name": "from",
          "type": "address"
        },
        {
          "internalType": "address",
          "name": "to",
          "type": "address"
        },
        {
          "internalType": "uint256",
          "name": "tokenId",
          "type": "uint256"
        }
      ],
      "name": "safeTransferFrom",
      "outputs": [],
      "stateMutability": "nonpayable",
      "type": "function"
    },
    {
      "inputs": [
        {
          "internalType": "address",
          "name": "from",
          "type": "address"
        },
        {
          "internalType": "address",
          "name": "to",
          "type": "address"
        },
        {
          "internalType": "uint256",
          "name": "tokenId",
          "type": "uint256"
        },
        {
          "internalType": "bytes",
          "name": "data",
          "type": "bytes"
        }
      ],
      "name": "safeTransferFrom",
      "outputs": [],
      "stateMutability": "nonpayable",
      "type": "function"
    },
    {
      "inputs": [
        {
          "internalType": "address",
          "name": "operator",
          "type": "address"
        },
        {
          "internalType": "bool",
          "name": "approved",
          "type": "bool"
        }
      ],
      "name": "setApprovalForAll",
      "outputs": [],
      "stateMutability": "nonpayable",
      "type": "function"
    },
    {
      "inputs": [
        {
          "internalType": "bytes4",
          "name": "interfaceId",
          "type": "bytes4"
        }
      ],
      "name": "supportsInterface",
      "outputs": [
        {
          "internalType": "bool",
          "name": "",
          "type": "bool"
        }
      ],
      "stateMutability": "view",
      "type": "function"
    },
    {
      "inputs": [],
      "name": "symbol",
      "outputs": [
        {
          "internalType": "string",
          "name": "",
          "type": "string"
        }
      ],
      "stateMutability": "view",
      "type": "function"
    },
    {
      "inputs": [
        {
          "internalType": "uint256",
          "name": "tokenId",
          "type": "uint256"
        }
      ],
      "name": "tokenURI",
      "outputs": [
        {
          "internalType": "string",
          "name": "",
          "type": "string"
        }
      ],
      "stateMutability": "view",
      "type": "function"
    },
    {
      "inputs": [
        {
          "internalType": "address",
          "name": "from",
          "type": "address"
        },
        {
          "internalType": "address",
          "name": "to",
          "type": "address"
        },
        {
          "internalType": "uint256",
          "name": "tokenId",
          "type": "uint256"
        }
      ],
      "name": "transferFrom",
      "outputs": [],
      "stateMutability": "nonpayable",
      "type": "function"
    }
  ],
  "bytecode": "0x60806040523480156200001157600080fd5b506040516200204338038062002043833981016040819052620000349162000185565b6040518060400160405280601081526020016f11dc99595b91195b1a5d995c9e53919560821b8152506040518060400160405280600581526020016423a922a2a760d91b81525081600090816200008c91906200025c565b5060016200009b82826200025c565b50620000ad91506000905082620000e0565b620000d97f9f2df0fed2c77648de5860a4cc508cd0818c85b8b8a1ab4ceeef8d981c8956a682620000e0565b5062000328565b60008281526007602090815260408083206001600160a01b038516845290915290205460ff16620001815760008281526007602090815260408083206001600160a01b03851684529091529020805460ff19166001179055620001403390565b6001600160a01b0316816001600160a01b0316837f2f8788117e7eff1d82e926ec794901d17c78024a50270940304540a733656f0d60405160405180910390a45b5050565b6000602082840312156200019857600080fd5b81516001600160a01b0381168114620001b057600080fd5b9392505050565b634e487b7160e01b600052604160045260246000fd5b600181811c90821680620001e257607f821691505b6020821081036200020357634e487b7160e01b600052602260045260246000fd5b50919050565b601f8211156200025757600081815260208120601f850160051c81016020861015620002325750805b601f850160051c820191505b8181101562000253578281556001016200023e565b5050505b505050565b81516001600160401b03811115620002785762000278620001b7565b6200029081620002898454620001cd565b8462000209565b602080601f831160018114620002c85760008415620002af5750858301515b600019600386901b1c1916600185901b17855562000253565b600085815260208120601f198616915b82811015620002f957888601518255948401946001909101908401620002d8565b5085821015620003185787850151600019600388901b60f8161c191681555b5050505050600190811b01905550565b611d0b80620003386000396000f3fe608060405234801561001057600080fd5b50600436106101375760003560e01c806370a08231116100b8578063b88d4fde1161007c578063b88d4fde14610292578063c87b56dd146102a5578063d0def521146102b8578063d5391393146102cb578063d547741f146102f2578063e985e9c51461030557600080fd5b806370a082311461024957806391d148541461025c57806395d89b411461026f578063a217fddf14610277578063a22cb4651461027f57600080fd5b8063248a9ca3116100ff578063248a9ca3146101cc5780632f2ff15d146101fd57806336568abe1461021057806342842e0e146102235780636352211e1461023657600080fd5b806301ffc9a71461013c57806306fdde0314610164578063081812fc14610179578063095ea7b3146101a457806323b872dd146101b9575b600080fd5b61014f61014a3660046115f3565b610341565b60405190151581526020015b60405180910390f35b61016c610352565b60405161015b9190611660565b61018c610187366004611673565b6103e4565b6040516001600160a01b03909116815260200161015b565b6101b76101b23660046116a8565b61040b565b005b6101b76101c73660046116d2565b610525565b6101ef6101da366004611673565b60009081526007602052604090206001015490565b60405190815260200161015b565b6101b761020b36600461170e565b610556565b6101b761021e36600461170e565b61057b565b6101b76102313660046116d2565b6105f9565b61018c610244366004611673565b610614565b6101ef61025736600461173a565b610674565b61014f61026a36600461170e565b6106fa565b61016c610725565b6101ef600081565b6101b761028d366004611755565b610734565b6101b76102a036600461181d565b61073f565b61016c6102b3366004611673565b610777565b6101ef6102c6366004611899565b610782565b6101ef7f9f2df0fed2c77648de5860a4cc508cd0818c85b8b8a1ab4ceeef8d981c8956a681565b6101b761030036600461170e565b6107e2565b61014f6103133660046118fb565b6001600160a01b03918216600090815260056020908152604080832093909416825291909152205460ff1690565b600061034c82610807565b92915050565b60606000805461036190611925565b80601f016020809104026020016040519081016040528092919081815260200182805461038d90611925565b80156103da5780601f106103af576101008083540402835291602001916103da565b820191906000526020600020905b8154815290600101906020018083116103bd57829003601f168201915b5050505050905090565b60006103ef8261082c565b506000908152600460205260409020546001600160a01b031690565b600061041682610614565b9050806001600160a01b0316836001600160a01b0316036104885760405162461bcd60e51b815260206004820152602160248201527f4552433732313a20617070726f76616c20746f2063757272656e74206f776e656044820152603960f91b60648201526084015b60405180910390fd5b336001600160a01b03821614806104a457506104a48133610313565b6105165760405162461bcd60e51b815260206004820152603d60248201527f4552433732313a20617070726f76652063616c6c6572206973206e6f7420746f60448201527f6b656e206f776e6572206f7220617070726f76656420666f7220616c6c000000606482015260840161047f565b610520838361088e565b505050565b61052f33826108fc565b61054b5760405162461bcd60e51b815260040161047f9061195f565b61052083838361097a565b60008281526007602052604090206001015461057181610ade565b6105208383610ae8565b6001600160a01b03811633146105eb5760405162461bcd60e51b815260206004820152602f60248201527f416363657373436f6e74726f6c3a2063616e206f6e6c792072656e6f756e636560448201526e103937b632b9903337b91039b2b63360891b606482015260840161047f565b6105f58282610b6e565b5050565b6105208383836040518060200160405280600081525061073f565b6000818152600260205260408120546001600160a01b03168061034c5760405162461bcd60e51b8152602060048201526018602482015277115490cdcc8c4e881a5b9d985b1a59081d1bdad95b88125160421b604482015260640161047f565b60006001600160a01b0382166106de5760405162461bcd60e51b815260206004820152602960248201527f4552433732313a2061646472657373207a65726f206973206e6f7420612076616044820152683634b21037bbb732b960b91b606482015260840161047f565b506001600160a01b031660009081526003602052604090205490565b60009182526007602090815260408084206001600160a01b0393909316845291905290205460ff1690565b60606001805461036190611925565b6105f5338383610bd5565b61074933836108fc565b6107655760405162461bcd60e51b815260040161047f9061195f565b61077184848484610ca3565b50505050565b606061034c82610cd6565b60007f9f2df0fed2c77648de5860a4cc508cd0818c85b8b8a1ab4ceeef8d981c8956a66107ae81610ade565b60006008600081546107bf906119c2565b918290555090506107d08582610dde565b6107da8185610df8565b949350505050565b6000828152600760205260409020600101546107fd81610ade565b6105208383610b6e565b60006001600160e01b03198216637965db0b60e01b148061034c575061034c82610ec3565b6000818152600260205260409020546001600160a01b031661088b5760405162461bcd60e51b8152602060048201526018602482015277115490cdcc8c4e881a5b9d985b1a59081d1bdad95b88125160421b604482015260640161047f565b50565b600081815260046020526040902080546001600160a01b0319166001600160a01b03841690811790915581906108c382610614565b6001600160a01b03167f8c5be1e5ebec7d5bd14f71427d1e84f3dd0314c0f7b2291e5b200ac8c7c3b92560405160405180910390a45050565b60008061090883610614565b9050806001600160a01b0316846001600160a01b0316148061094f57506001600160a01b0380821660009081526005602090815260408083209388168352929052205460ff165b806107da5750836001600160a01b0316610968846103e4565b6001600160a01b031614949350505050565b826001600160a01b031661098d82610614565b6001600160a01b0316146109b35760405162461bcd60e51b815260040161047f906119db565b6001600160a01b038216610a155760405162461bcd60e51b8152602060048201526024808201527f4552433732313a207472616e7366657220746f20746865207a65726f206164646044820152637265737360e01b606482015260840161047f565b826001600160a01b0316610a2882610614565b6001600160a01b031614610a4e5760405162461bcd60e51b815260040161047f906119db565b600081815260046020908152604080832080546001600160a01b03199081169091556001600160a01b0387811680865260038552838620805460001901905590871680865283862080546001019055868652600290945282852080549092168417909155905184937fddf252ad1be2c89b69c2b068fc378daa952ba7f163c4a11628f55a4df523b3ef91a4505050565b61088b8133610ee8565b610af282826106fa565b6105f55760008281526007602090815260408083206001600160a01b03851684529091529020805460ff19166001179055610b2a3390565b6001600160a01b0316816001600160a01b0316837f2f8788117e7eff1d82e926ec794901d17c78024a50270940304540a733656f0d60405160405180910390a45050565b610b7882826106fa565b156105f55760008281526007602090815260408083206001600160a01b0385168085529252808320805460ff1916905551339285917ff6391f5c32d9c69d2a47ea670b442974b53935d1edc7fd64eb21e047a839171b9190a45050565b816001600160a01b0316836001600160a01b031603610c365760405162461bcd60e51b815260206004820152601960248201527f4552433732313a20617070726f766520746f2063616c6c657200000000000000604482015260640161047f565b6001600160a01b03838116600081815260056020908152604080832094871680845294825291829020805460ff191686151590811790915591519182527f17307eab39ab6107e8899845ad3d59bd9653f200f220920489ca2b5937696c31910160405180910390a3505050565b610cae84848461097a565b610cba84848484610f41565b6107715760405162461bcd60e51b815260040161047f90611a20565b6060610ce18261082c565b60008281526006602052604081208054610cfa90611925565b80601f0160208091040260200160405190810160405280929190818152602001828054610d2690611925565b8015610d735780601f10610d4857610100808354040283529160200191610d73565b820191906000526020600020905b815481529060010190602001808311610d5657829003601f168201915b505050505090506000610d9160408051602081019091526000815290565b90508051600003610da3575092915050565b815115610dd5578082604051602001610dbd929190611a72565b60405160208183030381529060405292505050919050565b6107da84611042565b6105f58282604051806020016040528060008152506110b6565b6000828152600260205260409020546001600160a01b0316610e735760405162461bcd60e51b815260206004820152602e60248201527f45524337323155524953746f726167653a2055524920736574206f66206e6f6e60448201526d32bc34b9ba32b73a103a37b5b2b760911b606482015260840161047f565b6000828152600660205260409020610e8b8282611aef565b506040518281527ff8e1a15aba9398e019f0b49df1a4fde98ee17ae345cb5f6b5e2c27f5033e8ce79060200160405180910390a15050565b60006001600160e01b03198216632483248360e11b148061034c575061034c826110e9565b610ef282826106fa565b6105f557610eff81611139565b610f0a83602061114b565b604051602001610f1b929190611baf565b60408051601f198184030181529082905262461bcd60e51b825261047f91600401611660565b60006001600160a01b0384163b1561103757604051630a85bd0160e11b81526001600160a01b0385169063150b7a0290610f85903390899088908890600401611c24565b6020604051808303816000875af1925050508015610fc0575060408051601f3d908101601f19168201909252610fbd91810190611c61565b60015b61101d573d808015610fee576040519150601f19603f3d011682016040523d82523d6000602084013e610ff3565b606091505b5080516000036110155760405162461bcd60e51b815260040161047f90611a20565b805181602001fd5b6001600160e01b031916630a85bd0160e11b1490506107da565b506001949350505050565b606061104d8261082c565b600061106460408051602081019091526000815290565b9050600081511161108457604051806020016040528060008152506110af565b8061108e846112e7565b60405160200161109f929190611a72565b6040516020818303038152906040525b9392505050565b6110c0838361137a565b6110cd6000848484610f41565b6105205760405162461bcd60e51b815260040161047f90611a20565b60006001600160e01b031982166380ac58cd60e01b148061111a57506001600160e01b03198216635b5e139f60e01b145b8061034c57506301ffc9a760e01b6001600160e01b031983161461034c565b606061034c6001600160a01b03831660145b6060600061115a836002611c7e565b611165906002611c95565b67ffffffffffffffff81111561117d5761117d611791565b6040519080825280601f01601f1916602001820160405280156111a7576020820181803683370190505b509050600360fc1b816000815181106111c2576111c2611ca8565b60200101906001600160f81b031916908160001a905350600f60fb1b816001815181106111f1576111f1611ca8565b60200101906001600160f81b031916908160001a9053506000611215846002611c7e565b611220906001611c95565b90505b6001811115611298576f181899199a1a9b1b9c1cb0b131b232b360811b85600f166010811061125457611254611ca8565b1a60f81b82828151811061126a5761126a611ca8565b60200101906001600160f81b031916908160001a90535060049490941c9361129181611cbe565b9050611223565b5083156110af5760405162461bcd60e51b815260206004820181905260248201527f537472696e67733a20686578206c656e67746820696e73756666696369656e74604482015260640161047f565b606060006112f483611505565b600101905060008167ffffffffffffffff81111561131457611314611791565b6040519080825280601f01601f19166020018201604052801561133e576020820181803683370190505b5090508181016020015b600019016f181899199a1a9b1b9c1cb0b131b232b360811b600a86061a8153600a850494508461134857509392505050565b6001600160a01b0382166113d05760405162461bcd60e51b815260206004820181905260248201527f4552433732313a206d696e7420746f20746865207a65726f2061646472657373604482015260640161047f565b6000818152600260205260409020546001600160a01b0316156114355760405162461bcd60e51b815260206004820152601c60248201527f4552433732313a20746f6b656e20616c7265616479206d696e74656400000000604482015260640161047f565b6000818152600260205260409020546001600160a01b03161561149a5760405162461bcd60e51b815260206004820152601c60248201527f4552433732313a20746f6b656e20616c7265616479206d696e74656400000000604482015260640161047f565b6001600160a01b038216600081815260036020908152604080832080546001019055848352600290915280822080546001600160a01b0319168417905551839291907fddf252ad1be2c89b69c2b068fc378daa952ba7f163c4a11628f55a4df523b3ef908290a45050565b60008072184f03e93ff9f4daa797ed6e38ed64bf6a1f0160401b83106115445772184f03e93ff9f4daa797ed6e38ed64bf6a1f0160401b830492506040015b6d04ee2d6d415b85acef81000000008310611570576d04ee2d6d415b85acef8100000000830492506020015b662386f26fc10000831061158e57662386f26fc10000830492506010015b6305f5e10083106115a6576305f5e100830492506008015b61271083106115ba57612710830492506004015b606483106115cc576064830492506002015b600a831061034c5760010192915050565b6001600160e01b03198116811461088b57600080fd5b60006020828403121561160557600080fd5b81356110af816115dd565b60005b8381101561162b578181015183820152602001611613565b50506000910152565b6000815180845261164c816020860160208601611610565b601f01601f19169290920160200192915050565b6020815260006110af6020830184611634565b60006020828403121561168557600080fd5b5035919050565b80356001600160a01b03811681146116a357600080fd5b919050565b600080604083850312156116bb57600080fd5b6116c48361168c565b946020939093013593505050565b6000806000606084860312156116e757600080fd5b6116f08461168c565b92506116fe6020850161168c565b9150604084013590509250925092565b6000806040838503121561172157600080fd5b823591506117316020840161168c565b90509250929050565b60006020828403121561174c57600080fd5b6110af8261168c565b6000806040838503121561176857600080fd5b6117718361168c565b91506020830135801515811461178657600080fd5b809150509250929050565b634e487b7160e01b600052604160045260246000fd5b600067ffffffffffffffff808411156117c2576117c2611791565b604051601f8501601f19908116603f011681019082821181831017156117ea576117ea611791565b8160405280935085815286868601111561180357600080fd5b858560208301376000602087830101525050509392505050565b6000806000806080858703121561183357600080fd5b61183c8561168c565b935061184a6020860161168c565b925060408501359150606085013567ffffffffffffffff81111561186d57600080fd5b8501601f8101871361187e57600080fd5b61188d878235602084016117a7565b91505092959194509250565b600080604083850312156118ac57600080fd5b6118b58361168c565b9150602083013567ffffffffffffffff8111156118d157600080fd5b8301601f810185136118e257600080fd5b6118f1858235602084016117a7565b9150509250929050565b6000806040838503121561190e57600080fd5b6119178361168c565b91506117316020840161168c565b600181811c9082168061193957607f821691505b60208210810361195957634e487b7160e01b600052602260045260246000fd5b50919050565b6020808252602d908201527f4552433732313a2063616c6c6572206973206e6f7420746f6b656e206f776e6560408201526c1c881bdc88185c1c1c9bdd9959609a1b606082015260800190565b634e487b7160e01b600052601160045260246000fd5b6000600182016119d4576119d46119ac565b5060010190565b60208082526025908201527f4552433732313a207472616e736665722066726f6d20696e636f72726563742060408201526437bbb732b960d91b606082015260800190565b60208082526032908201527f4552433732313a207472616e7366657220746f206e6f6e20455243373231526560408201527131b2b4bb32b91034b6b83632b6b2b73a32b960711b606082015260800190565b60008351611a84818460208801611610565b835190830190611a98818360208801611610565b01949350505050565b601f82111561052057600081815260208120601f850160051c81016020861015611ac85750805b601f850160051c820191505b81811015611ae757828155600101611ad4565b505050505050565b815167ffffffffffffffff811115611b0957611b09611791565b611b1d81611b178454611925565b84611aa1565b602080601f831160018114611b525760008415611b3a5750858301515b600019600386901b1c1916600185901b178555611ae7565b600085815260208120601f198616915b82811015611b8157888601518255948401946001909101908401611b62565b5085821015611b9f5787850151600019600388901b60f8161c191681555b5050505050600190811b01905550565b7f416363657373436f6e74726f6c3a206163636f756e7420000000000000000000815260008351611be7816017850160208801611610565b7001034b99036b4b9b9b4b733903937b6329607d1b6017918401918201528351611c18816028840160208801611610565b01602801949350505050565b6001600160a01b0385811682528416602082015260408101839052608060608201819052600090611c5790830184611634565b9695505050505050565b600060208284031215611c7357600080fd5b81516110af816115dd565b808202811582820484141761034c5761034c6119ac565b8082018082111561034c5761034c6119ac565b634e487b7160e01b600052603260045260246000fd5b600081611ccd57611ccd6119ac565b50600019019056fea264697066735822122023d30e4f409024d71499c8f828dec1625c7c193bffaef421b0dde260c1c4239964736f6c63430008140033",
  "linkReferences": {},
  "deployedLinkReferences": {}
}