{
  "_format": "hh-sol-artifact-1",
  "contractName": "OrderEscrow",
  "sourceName": "contracts/core/OrderEscrow.sol",
  "abi": [
    {
      "inputs": [
        {
          "internalType": "address",
          "name": "admin",
          "type": "address"
        },
        {
          "internalType": "contract IERC20",
          "name": "_paymentToken",
          "type": "address"
        }
      ],
      "stateMutability": "nonpayable",
      "type": "constructor"
    },
    {
      "anonymous": false,
      "inputs": [
        {
          "indexed": true,
          "internalType": "bytes32",
          "name": "role",
          "type": "bytes32"
        },
        {
          "indexed": true,
          "internalType": "bytes32",
          "name": "previousAdminRole",
          "type": "bytes32"
        },
        {
          "indexed": true,
          "internalType": "bytes32",
          "name": "newAdminRole",
          "type": "bytes32"
        }
      ],
      "name": "RoleAdminChanged",
      "type": "event"
    },
    {
      "anonymous": false,
      "inputs": [
        {
          "indexed": true,
          "internalType": "bytes32",
          "name": "role",
          "type": "bytes32"
        },
        {
          "indexed": true,
          "internalType": "address",
          "name": "account",
          "type": "address"
        },
        {
          "indexed": true,
          "internalType": "address",
          "name": "sender",
          "type": "address"
        }
      ],
      "name": "RoleGranted",
      "type": "event"
    },
    {
      "anonymous": false,
      "inputs": [
        {
          "indexed": true,
          "internalType": "bytes32",
          "name": "role",
          "type": "bytes32"
        },
        {
          "indexed": true,
          "internalType": "address",
          "name": "account",
          "type": "address"
        },
        {
          "indexed": true,
          "internalType": "address",
          "name": "sender",
          "type": "address"
        }
      ],
      "name": "RoleRevoked",
      "type": "event"
    },
    {
      "inputs": [],
      "name": "DEFAULT_ADMIN_ROLE",
      "outputs": [
        {
          "internalType": "bytes32",
          "name": "",
          "type": "bytes32"
        }
      ],
      "stateMutability": "view",
      "type": "function"
    },
    {
      "inputs": [],
      "name": "MARKETPLACE_ROLE",
      "outputs": [
        {
          "internalType": "bytes32",
          "name": "",
          "type": "bytes32"
        }
      ],
      "stateMutability": "view",
      "type": "function"
    },
    {
      "inputs": [
        {
          "internalType": "address",
          "name": "customer",
          "type": "address"
        },
        {
          "internalType": "address",
          "name": "restaurant",
          "type": "address"
        },
        {
          "internalType": "address",
          "name": "driver",
          "type": "address"
        },
        {
          "internalType": "uint256",
          "name": "amount",
          "type": "uint256"
        }
      ],
      "name": "createOrder",
      "outputs": [
        {
          "internalType": "uint256",
          "name": "orderId",
          "type": "uint256"
        }
      ],
      "stateMutability": "nonpayable",
      "type": "function"
    },
    {
      "inputs": [
        {
          "internalType": "uint256",
          "name": "orderId",
          "type": "uint256"
        }
      ],
      "name": "getOrder",
      "outputs": [
        {
          "components": [
            {
              "internalType": "address",
              "name": "customer",
              "type": "address"
            },
            {
              "internalType": "address",
              "name": "restaurant",
              "type": "address"
            },
            {
              "internalType": "address",
              "name": "driver",
              "type": "address"
            },
            {
              "internalType": "uint256",
              "name": "amount",
              "type": "uint256"
            },
            {
              "internalType": "enum OrderEscrow.OrderStatus",
              "name": "status",
              "type": "uint8"
            }
          ],
          "internalType": "struct OrderEscrow.Order",
          "name": "",
          "type": "tuple"
        }
      ],
      "stateMutability": "view",
      "type": "function"
    },
    {
      "inputs": [
        {
          "internalType": "bytes32",
          "name": "role",
          "type": "bytes32"
        }
      ],
      "name": "getRoleAdmin",
      "outputs": [
        {
          "internalType": "bytes32",
          "name": "",
          "type": "bytes32"
        }
      ],
      "stateMutability": "view",
      "type": "function"
    },
    {
      "inputs": [
        {
          "internalType": "bytes32",
          "name": "role",
          "type": "bytes32"
        },
        {
          "internalType": "address",
          "name": "account",
          "type": "address"
        }
      ],
      "name": "grantRole",
      "outputs": [],
      "stateMutability": "nonpayable",
      "type": "function"
    },
    {
      "inputs": [
        {
          "internalType": "bytes32",
          "name": "role",
          "type": "bytes32"
        },
        {
          "internalType": "address",
          "name": "account",
          "type": "address"
        }
      ],
      "name": "hasRole",
      "outputs": [
        {
          "internalType": "bool",
          "name": "",
          "type": "bool"
        }
      ],
      "stateMutability": "view",
      "type": "function"
    },
    {
      "inputs": [],
      "name": "nextOrderId",
      "outputs": [
        {
          "internalType": "uint256",
          "name": "",
          "type": "uint256"
        }
      ],
      "stateMutability": "view",
      "type": "function"
    },
    {
      "inputs": [
        {
          "internalType": "uint256",
          "name": "",
          "type": "uint256"
        }
      ],
      "name": "orders",
      "outputs": [
        {
          "internalType": "address",
          "name": "customer",
          "type": "address"
        },
        {
          "internalType": "address",
          "name": "restaurant",
          "type": "address"
        },
        {
          "internalType": "address",
          "name": "driver",
          "type": "address"
        },
        {
          "internalType": "uint256",
          "name": "amount",
          "type": "uint256"
        },
        {
          "internalType": "enum OrderEscrow.OrderStatus",
          "name": "status",
          "type": "uint8"
        }
      ],
      "stateMutability": "view",
      "type": "function"
    },
    {
      "inputs": [],
      "name": "paymentToken",
      "outputs": [
        {
          "internalType": "contract IERC20",
          "name": "",
          "type": "address"
        }
      ],
      "stateMutability": "view",
      "type": "function"
    },
    {
      "inputs": [
        {
          "internalType": "uint256",
          "name": "orderId",
          "type": "uint256"
        },
        {
          "internalType": "uint256",
          "name": "restaurantShare",
          "type": "uint256"
        },
        {
          "internalType": "uint256",
          "name": "driverShare",
          "type": "uint256"
        },
        {
          "internalType": "address",
          "name": "platformFeeRecipient",
          "type": "address"
        }
      ],
      "name": "payout",
      "outputs": [],
      "stateMutability": "nonpayable",
      "type": "function"
    },
    {
      "inputs": [
        {
          "internalType": "string",
          "name": "",
          "type": "string"
        }
      ],
      "name": "placeOrderPayableEth",
      "outputs": [
        {
          "internalType": "uint256",
          "name": "orderId",
          "type": "uint256"
        }
      ],
      "stateMutability": "payable",
      "type": "function"
    },
    {
      "inputs": [
        {
          "internalType": "uint256",
          "name": "orderId",
          "type": "uint256"
        }
      ],
      "name": "refund",
      "outputs": [],
      "stateMutability": "nonpayable",
      "type": "function"
    },
    {
      "inputs": [
        {
          "internalType": "bytes32",
          "name": "role",
          "type": "bytes32"
        },
        {
          "internalType": "address",
          "name": "account",
          "type": "address"
        }
      ],
      "name": "renounceRole",
      "outputs": [],
      "stateMutability": "nonpayable",
      "type": "function"
    },
    {
      "inputs": [
        {
          "internalType": "bytes32",
          "name": "role",
          "type": "bytes32"
        },
        {
          "internalType": "address",
          "name": "account",
          "type": "address"
        }
      ],
      "name": "revokeRole",
      "outputs": [],
      "stateMutability": "nonpayable",
      "type": "function"
    },
    {
      "inputs": [
        {
          "internalType": "bytes4",
          "name": "interfaceId",
          "type": "bytes4"
        }
      ],
      "name": "supportsInterface",
      "outputs": [
        {
          "internalType": "bool",
          "name": "",
          "type": "bool"
        }
      ],
      "stateMutability": "view",
      "type": "function"
    }
  ],
  "bytecode": "0x60a06040523480156200001157600080fd5b506040516200168c3803806200168c83398101604081905262000034916200013a565b6200004160008362000080565b6200006d7f0ea61da3a8a09ad801432653699f8c1860b1ae9d2ea4a141fadfd63227717bc88362000080565b6001600160a01b03166080525062000179565b6000828152602081815260408083206001600160a01b038516845290915290205460ff166200011d576000828152602081815260408083206001600160a01b03851684529091529020805460ff19166001179055620000dc3390565b6001600160a01b0316816001600160a01b0316837f2f8788117e7eff1d82e926ec794901d17c78024a50270940304540a733656f0d60405160405180910390a45b5050565b6001600160a01b03811681146200013757600080fd5b50565b600080604083850312156200014e57600080fd5b82516200015b8162000121565b60208401519092506200016e8162000121565b809150509250929050565b6080516114d4620001b8600039600081816101d50152818161045f01528181610699015281816108d201528181610914015261095001526114d46000f3fe6080604052600436106100f35760003560e01c806353253d321161008a578063c3439f3f11610059578063c3439f3f14610304578063d097e9a414610326578063d09ef24114610346578063d547741f1461037357600080fd5b806353253d321461024257806391d1485414610262578063a217fddf14610282578063a85c38ef1461029757600080fd5b80632f2ff15d116100c65780632f2ff15d146101a35780633013ce29146101c357806336568abe1461020f5780633ade64891461022f57600080fd5b806301ffc9a7146100f8578063248a9ca31461012d578063278ecde11461016b5780632a58b3301461018d575b600080fd5b34801561010457600080fd5b50610118610113366004611078565b610393565b60405190151581526020015b60405180910390f35b34801561013957600080fd5b5061015d6101483660046110a2565b60009081526020819052604090206001015490565b604051908152602001610124565b34801561017757600080fd5b5061018b6101863660046110a2565b6103ca565b005b34801561019957600080fd5b5061015d60015481565b3480156101af57600080fd5b5061018b6101be3660046110d7565b61049b565b3480156101cf57600080fd5b506101f77f000000000000000000000000000000000000000000000000000000000000000081565b6040516001600160a01b039091168152602001610124565b34801561021b57600080fd5b5061018b61022a3660046110d7565b6104c5565b61015d61023d366004611103565b610543565b34801561024e57600080fd5b5061015d61025d366004611175565b61065c565b34801561026e57600080fd5b5061011861027d3660046110d7565b6107b4565b34801561028e57600080fd5b5061015d600081565b3480156102a357600080fd5b506102f36102b23660046110a2565b6002602081905260009182526040909120805460018201549282015460038301546004909301546001600160a01b0392831694831693919092169160ff1685565b6040516101249594939291906111f8565b34801561031057600080fd5b5061015d60008051602061147f83398151915281565b34801561033257600080fd5b5061018b610341366004611236565b6107dd565b34801561035257600080fd5b506103666103613660046110a2565b61098e565b6040516101249190611275565b34801561037f57600080fd5b5061018b61038e3660046110d7565b610a49565b60006001600160e01b03198216637965db0b60e01b14806103c457506301ffc9a760e01b6001600160e01b03198316145b92915050565b60008051602061147f8339815191526103e281610a6e565b6000828152600260205260409020600160048083015460ff169081111561040b5761040b6111c0565b1461044a5760405162461bcd60e51b815260206004820152600a6024820152694261642073746174757360b01b60448201526064015b60405180910390fd5b80546003820154610489916001600160a01b037f0000000000000000000000000000000000000000000000000000000000000000811692911690610a7b565b600401805460ff191660031790555050565b6000828152602081905260409020600101546104b681610a6e565b6104c08383610ade565b505050565b6001600160a01b03811633146105355760405162461bcd60e51b815260206004820152602f60248201527f416363657373436f6e74726f6c3a2063616e206f6e6c792072656e6f756e636560448201526e103937b632b9903337b91039b2b63360891b6064820152608401610441565b61053f8282610b62565b5050565b60008034116105895760405162461bcd60e51b81526020600482015260126024820152710416d6f756e74206d757374206265203e20360741b6044820152606401610441565b600160008154610598906112db565b91829055506040805160a08101825233815260006020808301828152838501838152346060860190815260016080870181815289875260029586905297909520865181546001600160a01b03199081166001600160a01b0392831617835594518288018054871691831691909117905592519481018054909416949092169390931790915590516003820155925160048085018054969750939591939260ff199092169190849081111561064e5761064e6111c0565b021790555090505092915050565b600060008051602061147f83398151915261067681610a6e565b600160008154610685906112db565b918290555091506106c16001600160a01b037f000000000000000000000000000000000000000000000000000000000000000016873086610bc7565b6040518060a00160405280876001600160a01b03168152602001866001600160a01b03168152602001856001600160a01b0316815260200184815260200160016004811115610712576107126111c0565b9052600083815260026020818152604092839020845181546001600160a01b03199081166001600160a01b03928316178355928601516001808401805486169284169290921790915594860151938201805490931693169290921790556060830151600382015560808301516004808301805493949293909260ff199091169184908111156107a3576107a36111c0565b021790555090505050949350505050565b6000918252602082815260408084206001600160a01b0393909316845291905290205460ff1690565b60008051602061147f8339815191526107f581610a6e565b6000858152600260205260409020600160048083015460ff169081111561081e5761081e6111c0565b146108585760405162461bcd60e51b815260206004820152600a6024820152694261642073746174757360b01b6044820152606401610441565b600061086485876112f4565b905081600301548111156108a55760405162461bcd60e51b81526020600482015260086024820152670a8dede40daeac6d60c31b6044820152606401610441565b60008183600301546108b79190611307565b905086156108fb5760018301546108fb906001600160a01b037f00000000000000000000000000000000000000000000000000000000000000008116911689610a7b565b851561093d57600283015461093d906001600160a01b037f00000000000000000000000000000000000000000000000000000000000000008116911688610a7b565b8015610977576109776001600160a01b037f0000000000000000000000000000000000000000000000000000000000000000168683610a7b565b5050600401805460ff191660021790555050505050565b6109bd6040805160a0810182526000808252602082018190529181018290526060810182905290608082015290565b600082815260026020818152604092839020835160a08101855281546001600160a01b0390811682526001830154811693820193909352928101549091169282019290925260038201546060820152600480830154919291608084019160ff90911690811115610a2f57610a2f6111c0565b6004811115610a4057610a406111c0565b90525092915050565b600082815260208190526040902060010154610a6481610a6e565b6104c08383610b62565b610a788133610c05565b50565b6040516001600160a01b0383166024820152604481018290526104c090849063a9059cbb60e01b906064015b60408051601f198184030181529190526020810180516001600160e01b03166001600160e01b031990931692909217909152610c5e565b610ae882826107b4565b61053f576000828152602081815260408083206001600160a01b03851684529091529020805460ff19166001179055610b1e3390565b6001600160a01b0316816001600160a01b0316837f2f8788117e7eff1d82e926ec794901d17c78024a50270940304540a733656f0d60405160405180910390a45050565b610b6c82826107b4565b1561053f576000828152602081815260408083206001600160a01b0385168085529252808320805460ff1916905551339285917ff6391f5c32d9c69d2a47ea670b442974b53935d1edc7fd64eb21e047a839171b9190a45050565b6040516001600160a01b0380851660248301528316604482015260648101829052610bff9085906323b872dd60e01b90608401610aa7565b50505050565b610c0f82826107b4565b61053f57610c1c81610d33565b610c27836020610d45565b604051602001610c3892919061133e565b60408051601f198184030181529082905262461bcd60e51b8252610441916004016113b3565b6000610cb3826040518060400160405280602081526020017f5361666545524332303a206c6f772d6c6576656c2063616c6c206661696c6564815250856001600160a01b0316610ee89092919063ffffffff16565b9050805160001480610cd4575080806020019051810190610cd491906113e6565b6104c05760405162461bcd60e51b815260206004820152602a60248201527f5361666545524332303a204552433230206f7065726174696f6e20646964206e6044820152691bdd081cdd58d8d9595960b21b6064820152608401610441565b60606103c46001600160a01b03831660145b60606000610d54836002611408565b610d5f9060026112f4565b67ffffffffffffffff811115610d7757610d7761141f565b6040519080825280601f01601f191660200182016040528015610da1576020820181803683370190505b509050600360fc1b81600081518110610dbc57610dbc611435565b60200101906001600160f81b031916908160001a905350600f60fb1b81600181518110610deb57610deb611435565b60200101906001600160f81b031916908160001a9053506000610e0f846002611408565b610e1a9060016112f4565b90505b6001811115610e92576f181899199a1a9b1b9c1cb0b131b232b360811b85600f1660108110610e4e57610e4e611435565b1a60f81b828281518110610e6457610e64611435565b60200101906001600160f81b031916908160001a90535060049490941c93610e8b8161144b565b9050610e1d565b508315610ee15760405162461bcd60e51b815260206004820181905260248201527f537472696e67733a20686578206c656e67746820696e73756666696369656e746044820152606401610441565b9392505050565b6060610ef78484600085610eff565b949350505050565b606082471015610f605760405162461bcd60e51b815260206004820152602660248201527f416464726573733a20696e73756666696369656e742062616c616e636520666f6044820152651c8818d85b1b60d21b6064820152608401610441565b600080866001600160a01b03168587604051610f7c9190611462565b60006040518083038185875af1925050503d8060008114610fb9576040519150601f19603f3d011682016040523d82523d6000602084013e610fbe565b606091505b5091509150610fcf87838387610fda565b979650505050505050565b60608315611049578251600003611042576001600160a01b0385163b6110425760405162461bcd60e51b815260206004820152601d60248201527f416464726573733a2063616c6c20746f206e6f6e2d636f6e74726163740000006044820152606401610441565b5081610ef7565b610ef7838381511561105e5781518083602001fd5b8060405162461bcd60e51b815260040161044191906113b3565b60006020828403121561108a57600080fd5b81356001600160e01b031981168114610ee157600080fd5b6000602082840312156110b457600080fd5b5035919050565b80356001600160a01b03811681146110d257600080fd5b919050565b600080604083850312156110ea57600080fd5b823591506110fa602084016110bb565b90509250929050565b6000806020838503121561111657600080fd5b823567ffffffffffffffff8082111561112e57600080fd5b818501915085601f83011261114257600080fd5b81358181111561115157600080fd5b86602082850101111561116357600080fd5b60209290920196919550909350505050565b6000806000806080858703121561118b57600080fd5b611194856110bb565b93506111a2602086016110bb565b92506111b0604086016110bb565b9396929550929360600135925050565b634e487b7160e01b600052602160045260246000fd5b600581106111f457634e487b7160e01b600052602160045260246000fd5b9052565b6001600160a01b0386811682528581166020830152841660408201526060810183905260a0810161122c60808301846111d6565b9695505050505050565b6000806000806080858703121561124c57600080fd5b84359350602085013592506040850135915061126a606086016110bb565b905092959194509250565b81516001600160a01b039081168252602080840151821690830152604080840151909116908201526060808301519082015260808083015160a08301916112be908401826111d6565b5092915050565b634e487b7160e01b600052601160045260246000fd5b6000600182016112ed576112ed6112c5565b5060010190565b808201808211156103c4576103c46112c5565b818103818111156103c4576103c46112c5565b60005b8381101561133557818101518382015260200161131d565b50506000910152565b7f416363657373436f6e74726f6c3a206163636f756e742000000000000000000081526000835161137681601785016020880161131a565b7001034b99036b4b9b9b4b733903937b6329607d1b60179184019182015283516113a781602884016020880161131a565b01602801949350505050565b60208152600082518060208401526113d281604085016020870161131a565b601f01601f19169190910160400192915050565b6000602082840312156113f857600080fd5b81518015158114610ee157600080fd5b80820281158282048414176103c4576103c46112c5565b634e487b7160e01b600052604160045260246000fd5b634e487b7160e01b600052603260045260246000fd5b60008161145a5761145a6112c5565b506000190190565b6000825161147481846020870161131a565b919091019291505056fe0ea61da3a8a09ad801432653699f8c1860b1ae9d2ea4a141fadfd63227717bc8a2646970667358221220611ab5b5a7c13c67bb84a101aabc96d7c4ef6875c89751a0e48b9c4088328c6264736f6c63430008140033",
  "linkReferences": {},
  "deployedLinkReferences": {}
}