{
  "_format": "hh-sol-artifact-1",
  "contractName": "Reputation",
  "sourceName": "contracts/core/Reputation.sol",
  "abi": [
    {
      "inputs": [
        {
          "internalType": "address",
          "name": "admin",
          "type": "address"
        }
      ],
      "stateMutability": "nonpayable",
      "type": "constructor"
    },
    {
      "anonymous": false,
      "inputs": [
        {
          "indexed": true,
          "internalType": "bytes32",
          "name": "role",
          "type": "bytes32"
        },
        {
          "indexed": true,
          "internalType": "bytes32",
          "name": "previousAdminRole",
          "type": "bytes32"
        },
        {
          "indexed": true,
          "internalType": "bytes32",
          "name": "newAdminRole",
          "type": "bytes32"
        }
      ],
      "name": "RoleAdminChanged",
      "type": "event"
    },
    {
      "anonymous": false,
      "inputs": [
        {
          "indexed": true,
          "internalType": "bytes32",
          "name": "role",
          "type": "bytes32"
        },
        {
          "indexed": true,
          "internalType": "address",
          "name": "account",
          "type": "address"
        },
        {
          "indexed": true,
          "internalType": "address",
          "name": "sender",
          "type": "address"
        }
      ],
      "name": "RoleGranted",
      "type": "event"
    },
    {
      "anonymous": false,
      "inputs": [
        {
          "indexed": true,
          "internalType": "bytes32",
          "name": "role",
          "type": "bytes32"
        },
        {
          "indexed": true,
          "internalType": "address",
          "name": "account",
          "type": "address"
        },
        {
          "indexed": true,
          "internalType": "address",
          "name": "sender",
          "type": "address"
        }
      ],
      "name": "RoleRevoked",
      "type": "event"
    },
    {
      "inputs": [],
      "name": "DEFAULT_ADMIN_ROLE",
      "outputs": [
        {
          "internalType": "bytes32",
          "name": "",
          "type": "bytes32"
        }
      ],
      "stateMutability": "view",
      "type": "function"
    },
    {
      "inputs": [],
      "name": "UPDATER_ROLE",
      "outputs": [
        {
          "internalType": "bytes32",
          "name": "",
          "type": "bytes32"
        }
      ],
      "stateMutability": "view",
      "type": "function"
    },
    {
      "inputs": [
        {
          "internalType": "address",
          "name": "driver",
          "type": "address"
        },
        {
          "internalType": "uint8",
          "name": "rating",
          "type": "uint8"
        }
      ],
      "name": "addDriverRating",
      "outputs": [],
      "stateMutability": "nonpayable",
      "type": "function"
    },
    {
      "inputs": [
        {
          "internalType": "address",
          "name": "",
          "type": "address"
        }
      ],
      "name": "driverStats",
      "outputs": [
        {
          "internalType": "uint256",
          "name": "totalRating",
          "type": "uint256"
        },
        {
          "internalType": "uint256",
          "name": "ratingCount",
          "type": "uint256"
        }
      ],
      "stateMutability": "view",
      "type": "function"
    },
    {
      "inputs": [
        {
          "internalType": "address",
          "name": "driver",
          "type": "address"
        }
      ],
      "name": "getAverage",
      "outputs": [
        {
          "internalType": "uint256",
          "name": "",
          "type": "uint256"
        }
      ],
      "stateMutability": "view",
      "type": "function"
    },
    {
      "inputs": [
        {
          "internalType": "bytes32",
          "name": "role",
          "type": "bytes32"
        }
      ],
      "name": "getRoleAdmin",
      "outputs": [
        {
          "internalType": "bytes32",
          "name": "",
          "type": "bytes32"
        }
      ],
      "stateMutability": "view",
      "type": "function"
    },
    {
      "inputs": [
        {
          "internalType": "bytes32",
          "name": "role",
          "type": "bytes32"
        },
        {
          "internalType": "address",
          "name": "account",
          "type": "address"
        }
      ],
      "name": "grantRole",
      "outputs": [],
      "stateMutability": "nonpayable",
      "type": "function"
    },
    {
      "inputs": [
        {
          "internalType": "bytes32",
          "name": "role",
          "type": "bytes32"
        },
        {
          "internalType": "address",
          "name": "account",
          "type": "address"
        }
      ],
      "name": "hasRole",
      "outputs": [
        {
          "internalType": "bool",
          "name": "",
          "type": "bool"
        }
      ],
      "stateMutability": "view",
      "type": "function"
    },
    {
      "inputs": [
        {
          "internalType": "bytes32",
          "name": "role",
          "type": "bytes32"
        },
        {
          "internalType": "address",
          "name": "account",
          "type": "address"
        }
      ],
      "name": "renounceRole",
      "outputs": [],
      "stateMutability": "nonpayable",
      "type": "function"
    },
    {
      "inputs": [
        {
          "internalType": "bytes32",
          "name": "role",
          "type": "bytes32"
        },
        {
          "internalType": "address",
          "name": "account",
          "type": "address"
        }
      ],
      "name": "revokeRole",
      "outputs": [],
      "stateMutability": "nonpayable",
      "type": "function"
    },
    {
      "inputs": [
        {
          "internalType": "bytes4",
          "name": "interfaceId",
          "type": "bytes4"
        }
      ],
      "name": "supportsInterface",
      "outputs": [
        {
          "internalType": "bool",
          "name": "",
          "type": "bool"
        }
      ],
      "stateMutability": "view",
      "type": "function"
    }
  ],
  "bytecode": "0x608060405234801561001057600080fd5b50604051610b20380380610b2083398101604081905261002f91610109565b61003a60008261006a565b6100647f73e573f9566d61418a34d5de3ff49360f9c51fec37f7486551670290f6285dab8261006a565b50610139565b6000828152602081815260408083206001600160a01b038516845290915290205460ff16610105576000828152602081815260408083206001600160a01b03851684529091529020805460ff191660011790556100c43390565b6001600160a01b0316816001600160a01b0316837f2f8788117e7eff1d82e926ec794901d17c78024a50270940304540a733656f0d60405160405180910390a45b5050565b60006020828403121561011b57600080fd5b81516001600160a01b038116811461013257600080fd5b9392505050565b6109d8806101486000396000f3fe608060405234801561001057600080fd5b50600436106100a95760003560e01c806379e5998c1161007157806379e5998c1461015657806391d1485414610169578063a217fddf1461017c578063ce427bff14610184578063d547741f14610197578063d73d8c10146101aa57600080fd5b806301ffc9a7146100ae578063248a9ca3146100d65780632f2ff15d1461010757806336568abe1461011c57806347e633801461012f575b600080fd5b6100c16100bc36600461074e565b6101e6565b60405190151581526020015b60405180910390f35b6100f96100e4366004610778565b60009081526020819052604090206001015490565b6040519081526020016100cd565b61011a6101153660046107ad565b61021d565b005b61011a61012a3660046107ad565b610247565b6100f97f73e573f9566d61418a34d5de3ff49360f9c51fec37f7486551670290f6285dab81565b61011a6101643660046107d9565b6102ca565b6100c16101773660046107ad565b610399565b6100f9600081565b6100f9610192366004610816565b6103c2565b61011a6101a53660046107ad565b61042c565b6101d16101b8366004610816565b6001602081905260009182526040909120805491015482565b604080519283526020830191909152016100cd565b60006001600160e01b03198216637965db0b60e01b148061021757506301ffc9a760e01b6001600160e01b03198316145b92915050565b60008281526020819052604090206001015461023881610451565b610242838361045e565b505050565b6001600160a01b03811633146102bc5760405162461bcd60e51b815260206004820152602f60248201527f416363657373436f6e74726f6c3a2063616e206f6e6c792072656e6f756e636560448201526e103937b632b9903337b91039b2b63360891b60648201526084015b60405180910390fd5b6102c682826104e2565b5050565b7f73e573f9566d61418a34d5de3ff49360f9c51fec37f7486551670290f6285dab6102f481610451565b60018260ff161015801561030c575060058260ff1611155b6103455760405162461bcd60e51b815260206004820152600a60248201526942616420726174696e6760b01b60448201526064016102b3565b6001600160a01b03831660009081526001602052604081208054909160ff851691839190610374908490610847565b90915550506001818101805460009061038e908490610847565b909155505050505050565b6000918252602082815260408084206001600160a01b0393909316845291905290205460ff1690565b6001600160a01b03811660009081526001602081815260408084208151808301909252805482529092015490820181905282036104025750600092915050565b6020810151815161041b90670de0b6b3a764000061085a565b6104259190610871565b9392505050565b60008281526020819052604090206001015461044781610451565b61024283836104e2565b61045b8133610547565b50565b6104688282610399565b6102c6576000828152602081815260408083206001600160a01b03851684529091529020805460ff1916600117905561049e3390565b6001600160a01b0316816001600160a01b0316837f2f8788117e7eff1d82e926ec794901d17c78024a50270940304540a733656f0d60405160405180910390a45050565b6104ec8282610399565b156102c6576000828152602081815260408083206001600160a01b0385168085529252808320805460ff1916905551339285917ff6391f5c32d9c69d2a47ea670b442974b53935d1edc7fd64eb21e047a839171b9190a45050565b6105518282610399565b6102c65761055e816105a0565b6105698360206105b2565b60405160200161057a9291906108b7565b60408051601f198184030181529082905262461bcd60e51b82526102b39160040161092c565b60606102176001600160a01b03831660145b606060006105c183600261085a565b6105cc906002610847565b67ffffffffffffffff8111156105e4576105e461095f565b6040519080825280601f01601f19166020018201604052801561060e576020820181803683370190505b509050600360fc1b8160008151811061062957610629610975565b60200101906001600160f81b031916908160001a905350600f60fb1b8160018151811061065857610658610975565b60200101906001600160f81b031916908160001a905350600061067c84600261085a565b610687906001610847565b90505b60018111156106ff576f181899199a1a9b1b9c1cb0b131b232b360811b85600f16601081106106bb576106bb610975565b1a60f81b8282815181106106d1576106d1610975565b60200101906001600160f81b031916908160001a90535060049490941c936106f88161098b565b905061068a565b5083156104255760405162461bcd60e51b815260206004820181905260248201527f537472696e67733a20686578206c656e67746820696e73756666696369656e7460448201526064016102b3565b60006020828403121561076057600080fd5b81356001600160e01b03198116811461042557600080fd5b60006020828403121561078a57600080fd5b5035919050565b80356001600160a01b03811681146107a857600080fd5b919050565b600080604083850312156107c057600080fd5b823591506107d060208401610791565b90509250929050565b600080604083850312156107ec57600080fd5b6107f583610791565b9150602083013560ff8116811461080b57600080fd5b809150509250929050565b60006020828403121561082857600080fd5b61042582610791565b634e487b7160e01b600052601160045260246000fd5b8082018082111561021757610217610831565b808202811582820484141761021757610217610831565b60008261088e57634e487b7160e01b600052601260045260246000fd5b500490565b60005b838110156108ae578181015183820152602001610896565b50506000910152565b7f416363657373436f6e74726f6c3a206163636f756e74200000000000000000008152600083516108ef816017850160208801610893565b7001034b99036b4b9b9b4b733903937b6329607d1b6017918401918201528351610920816028840160208801610893565b01602801949350505050565b602081526000825180602084015261094b816040850160208701610893565b601f01601f19169190910160400192915050565b634e487b7160e01b600052604160045260246000fd5b634e487b7160e01b600052603260045260246000fd5b60008161099a5761099a610831565b50600019019056fea264697066735822122050537f908d96408a6883e6fe4da1e6d0ec3630ab47c1d56bd75369330c519aa264736f6c63430008140033",
  "linkReferences": {},
  "deployedLinkReferences": {}
}